{
  "address": "0x9fE46736679d2D9a65F0992F2272dE9f3c7fa6e0",
  "abi": [
    {
      "inputs": [],
      "stateMutability": "nonpayable",
      "type": "constructor"
    },
    {
      "anonymous": false,
      "inputs": [
        {
          "indexed": true,
          "internalType": "address",
          "name": "owner",
          "type": "address"
        },
        {
          "indexed": true,
          "internalType": "address",
          "name": "spender",
          "type": "address"
        },
        {
          "indexed": false,
          "internalType": "uint256",
          "name": "value",
          "type": "uint256"
        }
      ],
      "name": "Approval",
      "type": "event"
    },
    {
      "anonymous": false,
      "inputs": [
        {
          "indexed": false,
          "internalType": "address",
          "name": "account",
          "type": "address"
        }
      ],
      "name": "Paused",
      "type": "event"
    },
    {
      "anonymous": false,
      "inputs": [
        {
          "indexed": true,
          "internalType": "address",
          "name": "from",
          "type": "address"
        },
        {
          "indexed": true,
          "internalType": "address",
          "name": "to",
          "type": "address"
        },
        {
          "indexed": false,
          "internalType": "uint256",
          "name": "value",
          "type": "uint256"
        }
      ],
      "name": "Transfer",
      "type": "event"
    },
    {
      "anonymous": false,
      "inputs": [
        {
          "indexed": false,
          "internalType": "address",
          "name": "account",
          "type": "address"
        }
      ],
      "name": "Unpaused",
      "type": "event"
    },
    {
      "inputs": [
        {
          "internalType": "address",
          "name": "owner",
          "type": "address"
        },
        {
          "internalType": "address",
          "name": "spender",
          "type": "address"
        }
      ],
      "name": "allowance",
      "outputs": [
        {
          "internalType": "uint256",
          "name": "",
          "type": "uint256"
        }
      ],
      "stateMutability": "view",
      "type": "function"
    },
    {
      "inputs": [
        {
          "internalType": "address",
          "name": "spender",
          "type": "address"
        },
        {
          "internalType": "uint256",
          "name": "amount",
          "type": "uint256"
        }
      ],
      "name": "approve",
      "outputs": [
        {
          "internalType": "bool",
          "name": "",
          "type": "bool"
        }
      ],
      "stateMutability": "nonpayable",
      "type": "function"
    },
    {
      "inputs": [
        {
          "internalType": "address",
          "name": "account",
          "type": "address"
        }
      ],
      "name": "balanceOf",
      "outputs": [
        {
          "internalType": "uint256",
          "name": "",
          "type": "uint256"
        }
      ],
      "stateMutability": "view",
      "type": "function"
    },
    {
      "inputs": [
        {
          "internalType": "address",
          "name": "_from",
          "type": "address"
        },
        {
          "internalType": "uint256",
          "name": "_amount",
          "type": "uint256"
        }
      ],
      "name": "burn",
      "outputs": [],
      "stateMutability": "nonpayable",
      "type": "function"
    },
    {
      "inputs": [
        {
          "internalType": "address",
          "name": "_token",
          "type": "address"
        },
        {
          "internalType": "address",
          "name": "_to",
          "type": "address"
        }
      ],
      "name": "claimTokens",
      "outputs": [],
      "stateMutability": "nonpayable",
      "type": "function"
    },
    {
      "inputs": [],
      "name": "decimals",
      "outputs": [
        {
          "internalType": "uint8",
          "name": "",
          "type": "uint8"
        }
      ],
      "stateMutability": "view",
      "type": "function"
    },
    {
      "inputs": [
        {
          "internalType": "address",
          "name": "spender",
          "type": "address"
        },
        {
          "internalType": "uint256",
          "name": "subtractedValue",
          "type": "uint256"
        }
      ],
      "name": "decreaseAllowance",
      "outputs": [
        {
          "internalType": "bool",
          "name": "",
          "type": "bool"
        }
      ],
      "stateMutability": "nonpayable",
      "type": "function"
    },
    {
      "inputs": [
        {
          "internalType": "address",
          "name": "spender",
          "type": "address"
        },
        {
          "internalType": "uint256",
          "name": "addedValue",
          "type": "uint256"
        }
      ],
      "name": "increaseAllowance",
      "outputs": [
        {
          "internalType": "bool",
          "name": "",
          "type": "bool"
        }
      ],
      "stateMutability": "nonpayable",
      "type": "function"
    },
    {
      "inputs": [
        {
          "internalType": "address",
          "name": "_to",
          "type": "address"
        },
        {
          "internalType": "uint256",
          "name": "_amount",
          "type": "uint256"
        }
      ],
      "name": "mint",
      "outputs": [],
      "stateMutability": "nonpayable",
      "type": "function"
    },
    {
      "inputs": [],
      "name": "name",
      "outputs": [
        {
          "internalType": "string",
          "name": "",
          "type": "string"
        }
      ],
      "stateMutability": "view",
      "type": "function"
    },
    {
      "inputs": [],
      "name": "pause",
      "outputs": [],
      "stateMutability": "nonpayable",
      "type": "function"
    },
    {
      "inputs": [],
      "name": "paused",
      "outputs": [
        {
          "internalType": "bool",
          "name": "",
          "type": "bool"
        }
      ],
      "stateMutability": "view",
      "type": "function"
    },
    {
      "inputs": [
        {
          "internalType": "address",
          "name": "minter",
          "type": "address"
        }
      ],
      "name": "setMinter",
      "outputs": [],
      "stateMutability": "nonpayable",
      "type": "function"
    },
    {
      "inputs": [],
      "name": "symbol",
      "outputs": [
        {
          "internalType": "string",
          "name": "",
          "type": "string"
        }
      ],
      "stateMutability": "view",
      "type": "function"
    },
    {
      "inputs": [],
      "name": "totalSupply",
      "outputs": [
        {
          "internalType": "uint256",
          "name": "",
          "type": "uint256"
        }
      ],
      "stateMutability": "view",
      "type": "function"
    },
    {
      "inputs": [
        {
          "internalType": "address",
          "name": "to",
          "type": "address"
        },
        {
          "internalType": "uint256",
          "name": "amount",
          "type": "uint256"
        }
      ],
      "name": "transfer",
      "outputs": [
        {
          "internalType": "bool",
          "name": "",
          "type": "bool"
        }
      ],
      "stateMutability": "nonpayable",
      "type": "function"
    },
    {
      "inputs": [
        {
          "internalType": "address",
          "name": "_to",
          "type": "address"
        },
        {
          "internalType": "uint256",
          "name": "_amount",
          "type": "uint256"
        },
        {
          "internalType": "bytes",
          "name": "_data",
          "type": "bytes"
        }
      ],
      "name": "transferAndCall",
      "outputs": [],
      "stateMutability": "nonpayable",
      "type": "function"
    },
    {
      "inputs": [
        {
          "internalType": "address",
          "name": "from",
          "type": "address"
        },
        {
          "internalType": "address",
          "name": "to",
          "type": "address"
        },
        {
          "internalType": "uint256",
          "name": "amount",
          "type": "uint256"
        }
      ],
      "name": "transferFrom",
      "outputs": [
        {
          "internalType": "bool",
          "name": "",
          "type": "bool"
        }
      ],
      "stateMutability": "nonpayable",
      "type": "function"
    },
    {
      "inputs": [],
      "name": "unpause",
      "outputs": [],
      "stateMutability": "nonpayable",
      "type": "function"
    }
  ],
  "transactionHash": "0x4a3a0d825efe933b3481a49c8be62626a20fb3ab870022fe751bd656199a682b",
  "args": [],
  "numDeployments": 1,
  "solcInputHash": "250cc593e322b1d505237e3145581d28",
  "bytecode": "0x60806040523480156200001157600080fd5b50604051806020016040528060008152506040518060200160405280600081525081600390805190602001906200004a929190620002a4565b50806004908051906020019062000063929190620002a4565b5050506000600560006101000a81548160ff0219169083151502179055506200009f336b0422ca8b0a00a42500000000620000a560201b60201c565b62000598565b600073ffffffffffffffffffffffffffffffffffffffff168273ffffffffffffffffffffffffffffffffffffffff16141562000118576040517f08c379a00000000000000000000000000000000000000000000000000000000081526004016200010f90620003b5565b60405180910390fd5b6200012c600083836200021360201b60201c565b806002600082825462000140919062000410565b92505081905550806000808473ffffffffffffffffffffffffffffffffffffffff1673ffffffffffffffffffffffffffffffffffffffff168152602001908152602001600020600082825401925050819055508173ffffffffffffffffffffffffffffffffffffffff16600073ffffffffffffffffffffffffffffffffffffffff167fddf252ad1be2c89b69c2b068fc378daa952ba7f163c4a11628f55a4df523b3ef83604051620001f391906200047e565b60405180910390a36200020f600083836200028360201b60201c565b5050565b6200022b8383836200028860201b62000b171760201c565b6200023b6200028d60201b60201c565b156200027e576040517f08c379a0000000000000000000000000000000000000000000000000000000008152600401620002759062000511565b60405180910390fd5b505050565b505050565b505050565b6000600560009054906101000a900460ff16905090565b828054620002b29062000562565b90600052602060002090601f016020900481019282620002d6576000855562000322565b82601f10620002f157805160ff191683800117855562000322565b8280016001018555821562000322579182015b828111156200032157825182559160200191906001019062000304565b5b50905062000331919062000335565b5090565b5b808211156200035057600081600090555060010162000336565b5090565b600082825260208201905092915050565b7f45524332303a206d696e7420746f20746865207a65726f206164647265737300600082015250565b60006200039d601f8362000354565b9150620003aa8262000365565b602082019050919050565b60006020820190508181036000830152620003d0816200038e565b9050919050565b6000819050919050565b7f4e487b7100000000000000000000000000000000000000000000000000000000600052601160045260246000fd5b60006200041d82620003d7565b91506200042a83620003d7565b9250827fffffffffffffffffffffffffffffffffffffffffffffffffffffffffffffffff03821115620004625762000461620003e1565b5b828201905092915050565b6200047881620003d7565b82525050565b60006020820190506200049560008301846200046d565b92915050565b7f45524332305061757361626c653a20746f6b656e207472616e7366657220776860008201527f696c652070617573656400000000000000000000000000000000000000000000602082015250565b6000620004f9602a8362000354565b915062000506826200049b565b604082019050919050565b600060208201905081810360008301526200052c81620004ea565b9050919050565b7f4e487b7100000000000000000000000000000000000000000000000000000000600052602260045260246000fd5b600060028204905060018216806200057b57607f821691505b6020821081141562000592576200059162000533565b5b50919050565b61252f80620005a86000396000f3fe608060405234801561001057600080fd5b50600436106101215760003560e01c80635c975abb116100ad5780639dc29fac116100715780639dc29fac146102e4578063a457c2d714610300578063a9059cbb14610330578063dd62ed3e14610360578063fca3b5aa1461039057610121565b80635c975abb1461025257806369ffa08a1461027057806370a082311461028c5780638456cb59146102bc57806395d89b41146102c657610121565b8063313ce567116100f4578063313ce567146101c257806339509351146101e05780633f4ba83a146102105780634000aea01461021a57806340c10f191461023657610121565b806306fdde0314610126578063095ea7b31461014457806318160ddd1461017457806323b872dd14610192575b600080fd5b61012e6103ac565b60405161013b9190611752565b60405180910390f35b61015e60048036038101906101599190611812565b61043e565b60405161016b919061186d565b60405180910390f35b61017c610461565b6040516101899190611897565b60405180910390f35b6101ac60048036038101906101a791906118b2565b61046b565b6040516101b9919061186d565b60405180910390f35b6101ca61049a565b6040516101d79190611921565b60405180910390f35b6101fa60048036038101906101f59190611812565b6104a3565b604051610207919061186d565b60405180910390f35b6102186104da565b005b610234600480360381019061022f91906119a1565b610523565b005b610250600480360381019061024b9190611812565b610611565b005b61025a6106b6565b604051610267919061186d565b60405180910390f35b61028a60048036038101906102859190611a15565b6106cd565b005b6102a660048036038101906102a19190611a55565b61071a565b6040516102b39190611897565b60405180910390f35b6102c4610762565b005b6102ce6107ab565b6040516102db9190611752565b60405180910390f35b6102fe60048036038101906102f99190611812565b61083d565b005b61031a60048036038101906103159190611812565b6108e2565b604051610327919061186d565b60405180910390f35b61034a60048036038101906103459190611812565b610959565b604051610357919061186d565b60405180910390f35b61037a60048036038101906103759190611a15565b61097c565b6040516103879190611897565b60405180910390f35b6103aa60048036038101906103a59190611a55565b610a03565b005b6060600380546103bb90611ab1565b80601f01602080910402602001604051908101604052809291908181526020018280546103e790611ab1565b80156104345780601f1061040957610100808354040283529160200191610434565b820191906000526020600020905b81548152906001019060200180831161041757829003601f168201915b5050505050905090565b600080610449610b1c565b9050610456818585610b24565b600191505092915050565b6000600254905090565b600080610476610b1c565b9050610483858285610cef565b61048e858585610d7b565b60019150509392505050565b60006012905090565b6000806104ae610b1c565b90506104cf8185856104c0858961097c565b6104ca9190611b12565b610b24565b600191505092915050565b6104e2610ff3565b73ffffffffffffffffffffffffffffffffffffffff163373ffffffffffffffffffffffffffffffffffffffff161461051957600080fd5b61052161101c565b565b600061052d610b1c565b905061053a818686610d7b565b8473ffffffffffffffffffffffffffffffffffffffff1663a4c0ed36828686866040518563ffffffff1660e01b81526004016105799493929190611bc4565b602060405180830381600087803b15801561059357600080fd5b505af11580156105a7573d6000803e3d6000fd5b505050506040513d601f19601f820116820180604052508101906105cb9190611c30565b61060a576040517f08c379a000000000000000000000000000000000000000000000000000000000815260040161060190611ca9565b60405180910390fd5b5050505050565b600560019054906101000a900473ffffffffffffffffffffffffffffffffffffffff1673ffffffffffffffffffffffffffffffffffffffff16610652610b1c565b73ffffffffffffffffffffffffffffffffffffffff16146106a8576040517f08c379a000000000000000000000000000000000000000000000000000000000815260040161069f90611d15565b60405180910390fd5b6106b2828261107f565b5050565b6000600560009054906101000a900460ff16905090565b6106d5610ff3565b73ffffffffffffffffffffffffffffffffffffffff163373ffffffffffffffffffffffffffffffffffffffff161461070c57600080fd5b61071682826111d6565b5050565b60008060008373ffffffffffffffffffffffffffffffffffffffff1673ffffffffffffffffffffffffffffffffffffffff168152602001908152602001600020549050919050565b61076a610ff3565b73ffffffffffffffffffffffffffffffffffffffff163373ffffffffffffffffffffffffffffffffffffffff16146107a157600080fd5b6107a9611228565b565b6060600480546107ba90611ab1565b80601f01602080910402602001604051908101604052809291908181526020018280546107e690611ab1565b80156108335780601f1061080857610100808354040283529160200191610833565b820191906000526020600020905b81548152906001019060200180831161081657829003601f168201915b5050505050905090565b600560019054906101000a900473ffffffffffffffffffffffffffffffffffffffff1673ffffffffffffffffffffffffffffffffffffffff1661087e610b1c565b73ffffffffffffffffffffffffffffffffffffffff16146108d4576040517f08c379a00000000000000000000000000000000000000000000000000000000081526004016108cb90611d15565b60405180910390fd5b6108de828261128b565b5050565b6000806108ed610b1c565b905060006108fb828661097c565b905083811015610940576040517f08c379a000000000000000000000000000000000000000000000000000000000815260040161093790611da7565b60405180910390fd5b61094d8286868403610b24565b60019250505092915050565b600080610964610b1c565b9050610971818585610d7b565b600191505092915050565b6000600160008473ffffffffffffffffffffffffffffffffffffffff1673ffffffffffffffffffffffffffffffffffffffff16815260200190815260200160002060008373ffffffffffffffffffffffffffffffffffffffff1673ffffffffffffffffffffffffffffffffffffffff16815260200190815260200160002054905092915050565b610a0b610ff3565b73ffffffffffffffffffffffffffffffffffffffff163373ffffffffffffffffffffffffffffffffffffffff1614610a4257600080fd5b600073ffffffffffffffffffffffffffffffffffffffff16600560019054906101000a900473ffffffffffffffffffffffffffffffffffffffff1673ffffffffffffffffffffffffffffffffffffffff1614610ad3576040517f08c379a0000000000000000000000000000000000000000000000000000000008152600401610aca90611e13565b60405180910390fd5b80600560016101000a81548173ffffffffffffffffffffffffffffffffffffffff021916908373ffffffffffffffffffffffffffffffffffffffff16021790555050565b505050565b600033905090565b600073ffffffffffffffffffffffffffffffffffffffff168373ffffffffffffffffffffffffffffffffffffffff161415610b94576040517f08c379a0000000000000000000000000000000000000000000000000000000008152600401610b8b90611ea5565b60405180910390fd5b600073ffffffffffffffffffffffffffffffffffffffff168273ffffffffffffffffffffffffffffffffffffffff161415610c04576040517f08c379a0000000000000000000000000000000000000000000000000000000008152600401610bfb90611f37565b60405180910390fd5b80600160008573ffffffffffffffffffffffffffffffffffffffff1673ffffffffffffffffffffffffffffffffffffffff16815260200190815260200160002060008473ffffffffffffffffffffffffffffffffffffffff1673ffffffffffffffffffffffffffffffffffffffff168152602001908152602001600020819055508173ffffffffffffffffffffffffffffffffffffffff168373ffffffffffffffffffffffffffffffffffffffff167f8c5be1e5ebec7d5bd14f71427d1e84f3dd0314c0f7b2291e5b200ac8c7c3b92583604051610ce29190611897565b60405180910390a3505050565b6000610cfb848461097c565b90507fffffffffffffffffffffffffffffffffffffffffffffffffffffffffffffffff8114610d755781811015610d67576040517f08c379a0000000000000000000000000000000000000000000000000000000008152600401610d5e90611fa3565b60405180910390fd5b610d748484848403610b24565b5b50505050565b600073ffffffffffffffffffffffffffffffffffffffff168373ffffffffffffffffffffffffffffffffffffffff161415610deb576040517f08c379a0000000000000000000000000000000000000000000000000000000008152600401610de290612035565b60405180910390fd5b600073ffffffffffffffffffffffffffffffffffffffff168273ffffffffffffffffffffffffffffffffffffffff161415610e5b576040517f08c379a0000000000000000000000000000000000000000000000000000000008152600401610e52906120c7565b60405180910390fd5b610e66838383611459565b60008060008573ffffffffffffffffffffffffffffffffffffffff1673ffffffffffffffffffffffffffffffffffffffff16815260200190815260200160002054905081811015610eec576040517f08c379a0000000000000000000000000000000000000000000000000000000008152600401610ee390612159565b60405180910390fd5b8181036000808673ffffffffffffffffffffffffffffffffffffffff1673ffffffffffffffffffffffffffffffffffffffff16815260200190815260200160002081905550816000808573ffffffffffffffffffffffffffffffffffffffff1673ffffffffffffffffffffffffffffffffffffffff168152602001908152602001600020600082825401925050819055508273ffffffffffffffffffffffffffffffffffffffff168473ffffffffffffffffffffffffffffffffffffffff167fddf252ad1be2c89b69c2b068fc378daa952ba7f163c4a11628f55a4df523b3ef84604051610fda9190611897565b60405180910390a3610fed8484846114b1565b50505050565b60007fb53127684a568b3173ae13b9f8a6016e243e63b6e8ee1178d6a717850b5d610354905090565b6110246114b6565b6000600560006101000a81548160ff0219169083151502179055507f5db9ee0a495bf2e6ff9c91a7834c1ba4fdd244a5e8aa4e537bd38aeae4b073aa611068610b1c565b6040516110759190612179565b60405180910390a1565b600073ffffffffffffffffffffffffffffffffffffffff168273ffffffffffffffffffffffffffffffffffffffff1614156110ef576040517f08c379a00000000000000000000000000000000000000000000000000000000081526004016110e6906121e0565b60405180910390fd5b6110fb60008383611459565b806002600082825461110d9190611b12565b92505081905550806000808473ffffffffffffffffffffffffffffffffffffffff1673ffffffffffffffffffffffffffffffffffffffff168152602001908152602001600020600082825401925050819055508173ffffffffffffffffffffffffffffffffffffffff16600073ffffffffffffffffffffffffffffffffffffffff167fddf252ad1be2c89b69c2b068fc378daa952ba7f163c4a11628f55a4df523b3ef836040516111be9190611897565b60405180910390a36111d2600083836114b1565b5050565b600073ffffffffffffffffffffffffffffffffffffffff168273ffffffffffffffffffffffffffffffffffffffff16141561121957611214816114ff565b611224565b611223828261154f565b5b5050565b61123061166f565b6001600560006101000a81548160ff0219169083151502179055507f62e78cea01bee320cd4e420270b5ea74000d11b0c9f74754ebdbfc544b05a258611274610b1c565b6040516112819190612179565b60405180910390a1565b600073ffffffffffffffffffffffffffffffffffffffff168273ffffffffffffffffffffffffffffffffffffffff1614156112fb576040517f08c379a00000000000000000000000000000000000000000000000000000000081526004016112f290612272565b60405180910390fd5b61130782600083611459565b60008060008473ffffffffffffffffffffffffffffffffffffffff1673ffffffffffffffffffffffffffffffffffffffff1681526020019081526020016000205490508181101561138d576040517f08c379a000000000000000000000000000000000000000000000000000000000815260040161138490612304565b60405180910390fd5b8181036000808573ffffffffffffffffffffffffffffffffffffffff1673ffffffffffffffffffffffffffffffffffffffff1681526020019081526020016000208190555081600260008282540392505081905550600073ffffffffffffffffffffffffffffffffffffffff168373ffffffffffffffffffffffffffffffffffffffff167fddf252ad1be2c89b69c2b068fc378daa952ba7f163c4a11628f55a4df523b3ef846040516114409190611897565b60405180910390a3611454836000846114b1565b505050565b611464838383610b17565b61146c6106b6565b156114ac576040517f08c379a00000000000000000000000000000000000000000000000000000000081526004016114a390612396565b60405180910390fd5b505050565b505050565b6114be6106b6565b6114fd576040517f08c379a00000000000000000000000000000000000000000000000000000000081526004016114f490612402565b60405180910390fd5b565b60004790508173ffffffffffffffffffffffffffffffffffffffff166108fc829081150290604051600060405180830381858888f1935050505015801561154a573d6000803e3d6000fd5b505050565b60008273ffffffffffffffffffffffffffffffffffffffff166370a08231306040518263ffffffff1660e01b815260040161158a9190612179565b60206040518083038186803b1580156115a257600080fd5b505afa1580156115b6573d6000803e3d6000fd5b505050506040513d601f19601f820116820180604052508101906115da9190612437565b90508273ffffffffffffffffffffffffffffffffffffffff1663a9059cbb83836040518363ffffffff1660e01b8152600401611617929190612464565b602060405180830381600087803b15801561163157600080fd5b505af1158015611645573d6000803e3d6000fd5b505050506040513d601f19601f820116820180604052508101906116699190611c30565b50505050565b6116776106b6565b156116b7576040517f08c379a00000000000000000000000000000000000000000000000000000000081526004016116ae906124d9565b60405180910390fd5b565b600081519050919050565b600082825260208201905092915050565b60005b838110156116f35780820151818401526020810190506116d8565b83811115611702576000848401525b50505050565b6000601f19601f8301169050919050565b6000611724826116b9565b61172e81856116c4565b935061173e8185602086016116d5565b61174781611708565b840191505092915050565b6000602082019050818103600083015261176c8184611719565b905092915050565b600080fd5b600080fd5b600073ffffffffffffffffffffffffffffffffffffffff82169050919050565b60006117a98261177e565b9050919050565b6117b98161179e565b81146117c457600080fd5b50565b6000813590506117d6816117b0565b92915050565b6000819050919050565b6117ef816117dc565b81146117fa57600080fd5b50565b60008135905061180c816117e6565b92915050565b6000806040838503121561182957611828611774565b5b6000611837858286016117c7565b9250506020611848858286016117fd565b9150509250929050565b60008115159050919050565b61186781611852565b82525050565b6000602082019050611882600083018461185e565b92915050565b611891816117dc565b82525050565b60006020820190506118ac6000830184611888565b92915050565b6000806000606084860312156118cb576118ca611774565b5b60006118d9868287016117c7565b93505060206118ea868287016117c7565b92505060406118fb868287016117fd565b9150509250925092565b600060ff82169050919050565b61191b81611905565b82525050565b60006020820190506119366000830184611912565b92915050565b600080fd5b600080fd5b600080fd5b60008083601f8401126119615761196061193c565b5b8235905067ffffffffffffffff81111561197e5761197d611941565b5b60208301915083600182028301111561199a57611999611946565b5b9250929050565b600080600080606085870312156119bb576119ba611774565b5b60006119c9878288016117c7565b94505060206119da878288016117fd565b935050604085013567ffffffffffffffff8111156119fb576119fa611779565b5b611a078782880161194b565b925092505092959194509250565b60008060408385031215611a2c57611a2b611774565b5b6000611a3a858286016117c7565b9250506020611a4b858286016117c7565b9150509250929050565b600060208284031215611a6b57611a6a611774565b5b6000611a79848285016117c7565b91505092915050565b7f4e487b7100000000000000000000000000000000000000000000000000000000600052602260045260246000fd5b60006002820490506001821680611ac957607f821691505b60208210811415611add57611adc611a82565b5b50919050565b7f4e487b7100000000000000000000000000000000000000000000000000000000600052601160045260246000fd5b6000611b1d826117dc565b9150611b28836117dc565b9250827fffffffffffffffffffffffffffffffffffffffffffffffffffffffffffffffff03821115611b5d57611b5c611ae3565b5b828201905092915050565b611b718161179e565b82525050565b600082825260208201905092915050565b82818337600083830152505050565b6000611ba38385611b77565b9350611bb0838584611b88565b611bb983611708565b840190509392505050565b6000606082019050611bd96000830187611b68565b611be66020830186611888565b8181036040830152611bf9818486611b97565b905095945050505050565b611c0d81611852565b8114611c1857600080fd5b50565b600081519050611c2a81611c04565b92915050565b600060208284031215611c4657611c45611774565b5b6000611c5484828501611c1b565b91505092915050565b7f534243546f6b656e3a204552433637372063616c6c6261636b206661696c6564600082015250565b6000611c936020836116c4565b9150611c9e82611c5d565b602082019050919050565b60006020820190508181036000830152611cc281611c86565b9050919050565b7f534243546f6b656e3a206e6f742061206d696e74657200000000000000000000600082015250565b6000611cff6016836116c4565b9150611d0a82611cc9565b602082019050919050565b60006020820190508181036000830152611d2e81611cf2565b9050919050565b7f45524332303a2064656372656173656420616c6c6f77616e63652062656c6f7760008201527f207a65726f000000000000000000000000000000000000000000000000000000602082015250565b6000611d916025836116c4565b9150611d9c82611d35565b604082019050919050565b60006020820190508181036000830152611dc081611d84565b9050919050565b7f534243546f6b656e3a206d696e74657220616c72656164792073657400000000600082015250565b6000611dfd601c836116c4565b9150611e0882611dc7565b602082019050919050565b60006020820190508181036000830152611e2c81611df0565b9050919050565b7f45524332303a20617070726f76652066726f6d20746865207a65726f2061646460008201527f7265737300000000000000000000000000000000000000000000000000000000602082015250565b6000611e8f6024836116c4565b9150611e9a82611e33565b604082019050919050565b60006020820190508181036000830152611ebe81611e82565b9050919050565b7f45524332303a20617070726f766520746f20746865207a65726f20616464726560008201527f7373000000000000000000000000000000000000000000000000000000000000602082015250565b6000611f216022836116c4565b9150611f2c82611ec5565b604082019050919050565b60006020820190508181036000830152611f5081611f14565b9050919050565b7f45524332303a20696e73756666696369656e7420616c6c6f77616e6365000000600082015250565b6000611f8d601d836116c4565b9150611f9882611f57565b602082019050919050565b60006020820190508181036000830152611fbc81611f80565b9050919050565b7f45524332303a207472616e736665722066726f6d20746865207a65726f20616460008201527f6472657373000000000000000000000000000000000000000000000000000000602082015250565b600061201f6025836116c4565b915061202a82611fc3565b604082019050919050565b6000602082019050818103600083015261204e81612012565b9050919050565b7f45524332303a207472616e7366657220746f20746865207a65726f206164647260008201527f6573730000000000000000000000000000000000000000000000000000000000602082015250565b60006120b16023836116c4565b91506120bc82612055565b604082019050919050565b600060208201905081810360008301526120e0816120a4565b9050919050565b7f45524332303a207472616e7366657220616d6f756e742065786365656473206260008201527f616c616e63650000000000000000000000000000000000000000000000000000602082015250565b60006121436026836116c4565b915061214e826120e7565b604082019050919050565b6000602082019050818103600083015261217281612136565b9050919050565b600060208201905061218e6000830184611b68565b92915050565b7f45524332303a206d696e7420746f20746865207a65726f206164647265737300600082015250565b60006121ca601f836116c4565b91506121d582612194565b602082019050919050565b600060208201905081810360008301526121f9816121bd565b9050919050565b7f45524332303a206275726e2066726f6d20746865207a65726f2061646472657360008201527f7300000000000000000000000000000000000000000000000000000000000000602082015250565b600061225c6021836116c4565b915061226782612200565b604082019050919050565b6000602082019050818103600083015261228b8161224f565b9050919050565b7f45524332303a206275726e20616d6f756e7420657863656564732062616c616e60008201527f6365000000000000000000000000000000000000000000000000000000000000602082015250565b60006122ee6022836116c4565b91506122f982612292565b604082019050919050565b6000602082019050818103600083015261231d816122e1565b9050919050565b7f45524332305061757361626c653a20746f6b656e207472616e7366657220776860008201527f696c652070617573656400000000000000000000000000000000000000000000602082015250565b6000612380602a836116c4565b915061238b82612324565b604082019050919050565b600060208201905081810360008301526123af81612373565b9050919050565b7f5061757361626c653a206e6f7420706175736564000000000000000000000000600082015250565b60006123ec6014836116c4565b91506123f7826123b6565b602082019050919050565b6000602082019050818103600083015261241b816123df565b9050919050565b600081519050612431816117e6565b92915050565b60006020828403121561244d5761244c611774565b5b600061245b84828501612422565b91505092915050565b60006040820190506124796000830185611b68565b6124866020830184611888565b9392505050565b7f5061757361626c653a2070617573656400000000000000000000000000000000600082015250565b60006124c36010836116c4565b91506124ce8261248d565b602082019050919050565b600060208201905081810360008301526124f2816124b6565b905091905056fea2646970667358221220b94f416fabea8fdff8caf028d42b8e2ea0b0154f83a0f3343494ed663844c34d64736f6c63430008090033",
  "devdoc": {
    "details": "Wrapped token used for depositing into SBC.",
    "kind": "dev",
    "methods": {
      "allowance(address,address)": {
        "details": "See {IERC20-allowance}."
      },
      "approve(address,uint256)": {
        "details": "See {IERC20-approve}. NOTE: If `amount` is the maximum `uint256`, the allowance is not updated on `transferFrom`. This is semantically equivalent to an infinite approval. Requirements: - `spender` cannot be the zero address."
      },
      "balanceOf(address)": {
        "details": "See {IERC20-balanceOf}."
      },
      "burn(address,uint256)": {
        "details": "Burns tokens. Only configured minter is allowed to burn tokens, which should be a SBCWrapper contract.",
        "params": {
          "_amount": "amount of tokens to burn.",
          "_from": "tokens owner."
        }
      },
      "claimTokens(address,address)": {
        "details": "Allows to transfer any locked token from this contract. Only admin can call this method.",
        "params": {
          "_to": "address that will receive the locked tokens from this contract.",
          "_token": "address of the token, if it is not provided (0x00..00), native coins will be transferred."
        }
      },
      "decimals()": {
        "details": "Returns the number of decimals used to get its user representation. For example, if `decimals` equals `2`, a balance of `505` tokens should be displayed to a user as `5.05` (`505 / 10 ** 2`). Tokens usually opt for a value of 18, imitating the relationship between Ether and Wei. This is the default value returned by this function, unless it's overridden. NOTE: This information is only used for _display_ purposes: it in no way affects any of the arithmetic of the contract, including {IERC20-balanceOf} and {IERC20-transfer}."
      },
      "decreaseAllowance(address,uint256)": {
        "details": "Atomically decreases the allowance granted to `spender` by the caller. This is an alternative to {approve} that can be used as a mitigation for problems described in {IERC20-approve}. Emits an {Approval} event indicating the updated allowance. Requirements: - `spender` cannot be the zero address. - `spender` must have allowance for the caller of at least `subtractedValue`."
      },
      "increaseAllowance(address,uint256)": {
        "details": "Atomically increases the allowance granted to `spender` by the caller. This is an alternative to {approve} that can be used as a mitigation for problems described in {IERC20-approve}. Emits an {Approval} event indicating the updated allowance. Requirements: - `spender` cannot be the zero address."
      },
      "mint(address,uint256)": {
        "details": "Mints new tokens. Only configured minter is allowed to mint tokens, which should be a SBCWrapper contract.",
        "params": {
          "_amount": "amount of tokens to mint.",
          "_to": "tokens receiver."
        }
      },
      "name()": {
        "details": "Returns the name of the token."
      },
      "paused()": {
        "details": "Returns true if the contract is paused, and false otherwise."
      },
      "setMinter(address)": {
        "details": "Initialization setter for the minter address. Only admin can call this method.",
        "params": {
          "minter": "address of the SBCWrapper contract."
        }
      },
      "symbol()": {
        "details": "Returns the symbol of the token, usually a shorter version of the name."
      },
      "totalSupply()": {
        "details": "See {IERC20-totalSupply}."
      },
      "transfer(address,uint256)": {
        "details": "See {IERC20-transfer}. Requirements: - `to` cannot be the zero address. - the caller must have a balance of at least `amount`."
      },
      "transferAndCall(address,uint256,bytes)": {
        "details": "Implements the ERC677 transferAndCall standard. Executes a regular transfer, but calls the receiver's function to handle them in the same transaction.",
        "params": {
          "_amount": "amount of sent tokens.",
          "_data": "extra data to pass to the callback function.",
          "_to": "tokens receiver."
        }
      },
      "transferFrom(address,address,uint256)": {
        "details": "See {IERC20-transferFrom}. Emits an {Approval} event indicating the updated allowance. This is not required by the EIP. See the note at the beginning of {ERC20}. NOTE: Does not update the allowance if the current allowance is the maximum `uint256`. Requirements: - `from` and `to` cannot be the zero address. - `from` must have a balance of at least `amount`. - the caller must have allowance for ``from``'s tokens of at least `amount`."
      }
    },
    "title": "SBCToken",
    "version": 1
  },
  "userdoc": {
    "kind": "user",
    "methods": {},
    "version": 1
  },
  "storageLayout": {
    "storage": [
      {
        "astId": 188,
        "contract": "src/gnosis/SBCToken.sol:SBCToken",
        "label": "_balances",
        "offset": 0,
        "slot": "0",
        "type": "t_mapping(t_address,t_uint256)"
      },
      {
        "astId": 194,
        "contract": "src/gnosis/SBCToken.sol:SBCToken",
        "label": "_allowances",
        "offset": 0,
        "slot": "1",
        "type": "t_mapping(t_address,t_mapping(t_address,t_uint256))"
      },
      {
        "astId": 196,
        "contract": "src/gnosis/SBCToken.sol:SBCToken",
        "label": "_totalSupply",
        "offset": 0,
        "slot": "2",
        "type": "t_uint256"
      },
      {
        "astId": 198,
        "contract": "src/gnosis/SBCToken.sol:SBCToken",
        "label": "_name",
        "offset": 0,
        "slot": "3",
        "type": "t_string_storage"
      },
      {
        "astId": 200,
        "contract": "src/gnosis/SBCToken.sol:SBCToken",
        "label": "_symbol",
        "offset": 0,
        "slot": "4",
        "type": "t_string_storage"
      },
      {
        "astId": 17,
        "contract": "src/gnosis/SBCToken.sol:SBCToken",
        "label": "_paused",
        "offset": 0,
        "slot": "5",
        "type": "t_bool"
      },
      {
        "astId": 2525,
        "contract": "src/gnosis/SBCToken.sol:SBCToken",
        "label": "_minter",
        "offset": 1,
        "slot": "5",
        "type": "t_address"
      }
    ],
    "types": {
      "t_address": {
        "encoding": "inplace",
        "label": "address",
        "numberOfBytes": "20"
      },
      "t_bool": {
        "encoding": "inplace",
        "label": "bool",
        "numberOfBytes": "1"
      },
      "t_mapping(t_address,t_mapping(t_address,t_uint256))": {
        "encoding": "mapping",
        "key": "t_address",
        "label": "mapping(address => mapping(address => uint256))",
        "numberOfBytes": "32",
        "value": "t_mapping(t_address,t_uint256)"
      },
      "t_mapping(t_address,t_uint256)": {
        "encoding": "mapping",
        "key": "t_address",
        "label": "mapping(address => uint256)",
        "numberOfBytes": "32",
        "value": "t_uint256"
      },
      "t_string_storage": {
        "encoding": "bytes",
        "label": "string",
        "numberOfBytes": "32"
      },
      "t_uint256": {
        "encoding": "inplace",
        "label": "uint256",
        "numberOfBytes": "32"
      }
    }
  }
}