{
  "address": "0x3A3E1247517e1348e333F51eeBaE9865F60A2959",
  "abi": [
    {
      "inputs": [
        {
          "internalType": "contract IDepositContract",
          "name": "depositContract_",
          "type": "address"
        }
      ],
      "stateMutability": "nonpayable",
      "type": "constructor"
    },
    {
      "inputs": [],
      "name": "AlreadyDeposited",
      "type": "error"
    },
    {
      "inputs": [],
      "name": "AlreadyFinalized",
      "type": "error"
    },
    {
      "inputs": [],
      "name": "CallerNotFirstFriend",
      "type": "error"
    },
    {
      "inputs": [],
      "name": "DepositorNotFriend",
      "type": "error"
    },
    {
      "inputs": [],
      "name": "InvalidDepositAmount",
      "type": "error"
    },
    {
      "inputs": [],
      "name": "InvalidFriend",
      "type": "error"
    },
    {
      "inputs": [],
      "name": "InvalidFriends",
      "type": "error"
    },
    {
      "inputs": [],
      "name": "InvalidPoolIndex",
      "type": "error"
    },
    {
      "inputs": [],
      "name": "InvalidShares",
      "type": "error"
    },
    {
      "inputs": [],
      "name": "MissingDeposits",
      "type": "error"
    },
    {
      "inputs": [],
      "name": "WrongDepositAmount",
      "type": "error"
    },
    {
      "anonymous": false,
      "inputs": [
        {
          "indexed": false,
          "internalType": "uint256",
          "name": "index",
          "type": "uint256"
        },
        {
          "indexed": false,
          "internalType": "uint256",
          "name": "friend",
          "type": "uint256"
        }
      ],
      "name": "Deposited",
      "type": "event"
    },
    {
      "anonymous": false,
      "inputs": [
        {
          "indexed": false,
          "internalType": "uint256",
          "name": "index",
          "type": "uint256"
        },
        {
          "indexed": false,
          "internalType": "address",
          "name": "rewardSplitter",
          "type": "address"
        }
      ],
      "name": "PoolCreated",
      "type": "event"
    },
    {
      "anonymous": false,
      "inputs": [
        {
          "indexed": false,
          "internalType": "uint256",
          "name": "index",
          "type": "uint256"
        }
      ],
      "name": "PoolFinalized",
      "type": "event"
    },
    {
      "inputs": [
        {
          "internalType": "uint256",
          "name": "poolIndex",
          "type": "uint256"
        },
        {
          "internalType": "uint256",
          "name": "friend",
          "type": "uint256"
        }
      ],
      "name": "deposit",
      "outputs": [],
      "stateMutability": "payable",
      "type": "function"
    },
    {
      "inputs": [
        {
          "internalType": "uint256",
          "name": "poolIndex",
          "type": "uint256"
        },
        {
          "internalType": "bytes",
          "name": "pubkey",
          "type": "bytes"
        },
        {
          "internalType": "bytes",
          "name": "signature",
          "type": "bytes"
        },
        {
          "internalType": "bytes32",
          "name": "depositDataRoot",
          "type": "bytes32"
        }
      ],
      "name": "finalizePool",
      "outputs": [],
      "stateMutability": "nonpayable",
      "type": "function"
    },
    {
      "inputs": [
        {
          "internalType": "uint256",
          "name": "poolIndex",
          "type": "uint256"
        }
      ],
      "name": "getPool",
      "outputs": [
        {
          "components": [
            {
              "internalType": "address[]",
              "name": "friends",
              "type": "address[]"
            },
            {
              "internalType": "uint256[]",
              "name": "shares",
              "type": "uint256[]"
            },
            {
              "internalType": "bool[]",
              "name": "deposited",
              "type": "bool[]"
            },
            {
              "internalType": "uint256",
              "name": "numDeposited",
              "type": "uint256"
            },
            {
              "internalType": "bool",
              "name": "isFinalized",
              "type": "bool"
            },
            {
              "internalType": "address",
              "name": "rewardSplitter",
              "type": "address"
            }
          ],
          "internalType": "struct Pool",
          "name": "",
          "type": "tuple"
        }
      ],
      "stateMutability": "view",
      "type": "function"
    },
    {
      "inputs": [],
      "name": "numPools",
      "outputs": [
        {
          "internalType": "uint256",
          "name": "",
          "type": "uint256"
        }
      ],
      "stateMutability": "view",
      "type": "function"
    },
    {
      "inputs": [],
      "name": "rugpull",
      "outputs": [],
      "stateMutability": "nonpayable",
      "type": "function"
    },
    {
      "inputs": [
        {
          "internalType": "address[]",
          "name": "friends",
          "type": "address[]"
        },
        {
          "internalType": "uint256[]",
          "name": "shares",
          "type": "uint256[]"
        }
      ],
      "name": "setupPool",
      "outputs": [],
      "stateMutability": "payable",
      "type": "function"
    }
  ],
  "transactionHash": "0xcbf9206fd6a8426435307657344adde52085448c341469990790a9595062411c",
  "args": [
    "0x537AfE2530697749ff0bdab9FdA91c8eB787E889"
  ],
  "numDeployments": 1,
  "solcInputHash": "3bec3c58f187aff380bd39ee145ab943",
  "bytecode": "0x608060405234801561000f575f80fd5b506040516124b33803806124b383398101604081905261002e9161005c565b600280546001600160a01b039092166001600160a01b03199283161790556003805490911633179055610089565b5f6020828403121561006c575f80fd5b81516001600160a01b0381168114610082575f80fd5b9392505050565b61241d806100965f395ff3fe6080604052600436106200005b575f3560e01c8063068bcd8d146200005f57806335c62bc2146200009b5780634e7c35a714620000c0578063bf7650cb14620000d9578063e2664e4914620000fd578063e2bbb1581462000114575b5f80fd5b3480156200006b575f80fd5b50620000836200007d36600462000dcc565b6200012b565b60405162000092919062000e51565b60405180910390f35b348015620000a7575f80fd5b50620000b15f5481565b60405190815260200162000092565b620000d7620000d136600462000f6c565b620002e2565b005b348015620000e5575f80fd5b50620000d7620000f73660046200101b565b620006eb565b34801562000109575f80fd5b50620000d762000a24565b620000d7620001253660046200109e565b62000a7e565b6200016d6040518060c001604052806060815260200160608152602001606081526020015f81526020015f151581526020015f6001600160a01b031681525090565b5f828152600160209081526040918290208251815460e09381028201840190945260c081018481529093919284928491840182828015620001d657602002820191905f5260205f20905b81546001600160a01b03168152600190910190602001808311620001b7575b50505050508152602001600182018054806020026020016040519081016040528092919081815260200182805480156200022e57602002820191905f5260205f20905b81548152602001906001019080831162000219575b5050505050815260200160028201805480602002602001604051908101604052809291908181526020018280548015620002a557602002820191905f5260205f20905f905b825461010083900a900460ff161515815260206001928301818104948501949093039092029101808411620002735790505b50505091835250506003820154602082015260049091015460ff81161515604083015261010090046001600160a01b031660609091015292915050565b60028310156200030557604051634058d41f60e01b815260040160405180910390fd5b8083146200032657604051636edcc52360e01b815260040160405180910390fd5b5f805b82811015620003ae57838382818110620003475762000347620010bf565b905060200201355f036200036e57604051636edcc52360e01b815260040160405180910390fd5b838382818110620003835762000383620010bf565b9050602002013582620003979190620010e7565b915080620003a58162001103565b91505062000329565b50806801bc16d674ec80000014620003d957604051636edcc52360e01b815260040160405180910390fd5b84845f818110620003ee57620003ee620010bf565b90506020020160208101906200040591906200113a565b6001600160a01b0316336001600160a01b0316146200043757604051631aaf920f60e31b815260040160405180910390fd5b82825f8181106200044c576200044c620010bf565b9050602002013534146200047357604051636ff0acf960e11b815260040160405180910390fd5b5f8467ffffffffffffffff8111156200049057620004906200115d565b604051908082528060200260200182016040528015620004ba578160200160208202803683370190505b5090506001815f81518110620004d457620004d4620010bf565b6020026020010190151590811515815250505f86868686604051620004f99062000c67565b62000508949392919062001171565b604051809103905ff08015801562000522573d5f803e3d5ffd5b5090505f6040518060c001604052808989808060200260200160405190810160405280939291908181526020018383602002808284375f9201919091525050509082525060408051602089810282810182019093528982529283019290918a918a9182918501908490808284375f920182905250938552505050602080830187905260016040808501829052606085018490526001600160a01b0388166080909501949094528254835281529190208251805193945084939192620005ed9284929091019062000c75565b50602082810151805162000608926001850192019062000cdd565b50604082015180516200062691600284019160209091019062000d19565b506060820151600382015560808201516004909101805460a0909301516001600160a01b031661010002610100600160a81b0319921515929092166001600160a81b0319909316929092171790555f80546001919081906200068a908490620010e7565b90915550505f547f65fc0eb45954044fb55e1b01344d5d72fbfdf88e732d955f73bb7fb2bcc131e990620006c190600190620011f0565b604080519182526001600160a01b0385166020830152015b60405180910390a15050505050505050565b5f5486106200070d5760405163f04e7fbd60e01b815260040160405180910390fd5b5f8681526001602090815260408083208151815460e09481028201850190935260c081018381529093919284928491908401828280156200077657602002820191905f5260205f20905b81546001600160a01b0316815260019091019060200180831162000757575b5050505050815260200160018201805480602002602001604051908101604052809291908181526020018280548015620007ce57602002820191905f5260205f20905b815481526020019060010190808311620007b9575b50505050508152602001600282018054806020026020016040519081016040528092919081815260200182805480156200084557602002820191905f5260205f20905f905b825461010083900a900460ff161515815260206001928301818104948501949093039092029101808411620008135790505b50505091835250506003820154602082015260049091015460ff81161515604083015261010090046001600160a01b031660609091015280518051919250905f90620008955762000895620010bf565b60200260200101516001600160a01b0316336001600160a01b031614620008cf57604051631aaf920f60e31b815260040160405180910390fd5b80515160608201511015620008f75760405163e700550d60e01b815260040160405180910390fd5b8060800151156200091b5760405163475a253560e01b815260040160405180910390fd5b5f878152600160208181526040808420600401805460ff191690931790925560a08401518251600160f81b928101929092526021820184905260601b6bffffffffffffffffffffffff1916602c8201520160408051601f19818403018152908290526002546304512a2360e31b83529092506001600160a01b0316906322895118906801bc16d674ec80000090620009c2908b908b9087908c908c908c906004016200122e565b5f604051808303818588803b158015620009da575f80fd5b505af1158015620009ed573d5f803e3d5ffd5b50505050507f7ed2d5bdf35d4cb790f65d053de7890f1b4a687ac689ca56c23730833531deb088604051620006d991815260200190565b6003546001600160a01b0316331462000a3b575f80fd5b604051339047905f81818185875af1925050503d805f811462000a79576040519150601f19603f3d011682016040523d82523d5f602084013e505050565b505050565b5f54821062000aa05760405163f04e7fbd60e01b815260040160405180910390fd5b5f8281526001602052604090208054821062000acf57604051638d53b00b60e01b815260040160405180910390fd5b805f01828154811062000ae65762000ae6620010bf565b5f918252602090912001546001600160a01b0316331462000b1a576040516325fb0e6160e01b815260040160405180910390fd5b80600101828154811062000b325762000b32620010bf565b905f5260205f200154341462000b5b5760405163fe9ba5cd60e01b815260040160405180910390fd5b80600201828154811062000b735762000b73620010bf565b905f5260205f2090602091828204019190069054906101000a900460ff161562000bb05760405163d5a8211560e01b815260040160405180910390fd5b5f83815260016020819052604090912060020180548490811062000bd85762000bd8620010bf565b905f5260205f2090602091828204019190066101000a81548160ff0219169083151502179055506001805f8581526020019081526020015f206003015f82825462000c249190620010e7565b909155505060408051848152602081018490527f06da3309189fa49284f335d2c2bcb4cb0b8ad2a59ad92a9bdebeeb8f1ceba511910160405180910390a1505050565b61113680620012b283390190565b828054828255905f5260205f2090810192821562000ccb579160200282015b8281111562000ccb57825182546001600160a01b0319166001600160a01b0390911617825560209092019160019091019062000c94565b5062000cd992915062000db6565b5090565b828054828255905f5260205f2090810192821562000ccb579160200282015b8281111562000ccb57825182559160200191906001019062000cfc565b828054828255905f5260205f2090601f0160209004810192821562000ccb579160200282015f5b8382111562000d7e57835183826101000a81548160ff02191690831515021790555092602001926001016020815f0104928301926001030262000d40565b801562000dac5782816101000a81549060ff02191690556001016020815f0104928301926001030262000d7e565b505062000cd99291505b5b8082111562000cd9575f815560010162000db7565b5f6020828403121562000ddd575f80fd5b5035919050565b5f8151808452602080850194508084015f5b8381101562000e145781518752958201959082019060010162000df6565b509495945050505050565b5f8151808452602080850194508084015f5b8381101562000e1457815115158752958201959082019060010162000e31565b6020808252825160c083830152805160e084018190525f929182019083906101008601905b8083101562000ea15783516001600160a01b0316825292840192600192909201919084019062000e76565b50838701519350601f1992508286820301604087015262000ec3818562000de4565b9350505060408501518185840301606086015262000ee2838262000e1f565b9250505060608401516080840152608084015162000f0460a085018215159052565b5060a08401516001600160a01b03811660c0850152509392505050565b5f8083601f84011262000f32575f80fd5b50813567ffffffffffffffff81111562000f4a575f80fd5b6020830191508360208260051b850101111562000f65575f80fd5b9250929050565b5f805f806040858703121562000f80575f80fd5b843567ffffffffffffffff8082111562000f98575f80fd5b62000fa68883890162000f21565b9096509450602087013591508082111562000fbf575f80fd5b5062000fce8782880162000f21565b95989497509550505050565b5f8083601f84011262000feb575f80fd5b50813567ffffffffffffffff81111562001003575f80fd5b60208301915083602082850101111562000f65575f80fd5b5f805f805f806080878903121562001031575f80fd5b86359550602087013567ffffffffffffffff8082111562001050575f80fd5b6200105e8a838b0162000fda565b9097509550604089013591508082111562001077575f80fd5b506200108689828a0162000fda565b979a9699509497949695606090950135949350505050565b5f8060408385031215620010b0575f80fd5b50508035926020909101359150565b634e487b7160e01b5f52603260045260245ffd5b634e487b7160e01b5f52601160045260245ffd5b80820180821115620010fd57620010fd620010d3565b92915050565b5f60018201620011175762001117620010d3565b5060010190565b80356001600160a01b038116811462001135575f80fd5b919050565b5f602082840312156200114b575f80fd5b62001156826200111e565b9392505050565b634e487b7160e01b5f52604160045260245ffd5b604080825281018490525f8560608301825b87811015620011b5576001600160a01b036200119f846200111e565b1682526020928301929091019060010162001183565b5083810360208501528481526001600160fb1b03851115620011d5575f80fd5b8460051b915081866020830137016020019695505050505050565b81810381811115620010fd57620010fd620010d3565b81835281816020850137505f828201602090810191909152601f909101601f19169091010190565b608081525f6200124360808301888a62001206565b60208382038185015287518083525f5b818110156200127057898101830151848201840152820162001253565b505f838201830152601f01601f191690910183810382016040850152906200129c828201878962001206565b9250505082606083015297965050505050505056fe60806040526040516200113638038062001136833981016040819052620000269162000422565b8051825114620000985760405162461bcd60e51b815260206004820152603260248201527f5061796d656e7453706c69747465723a2070617965657320616e6420736861726044820152710cae640d8cadccee8d040dad2e6dac2e8c6d60731b60648201526084015b60405180910390fd5b5f825111620000ea5760405162461bcd60e51b815260206004820152601a60248201527f5061796d656e7453706c69747465723a206e6f2070617965657300000000000060448201526064016200008f565b5f5b82518110156200015557620001408382815181106200010f576200010f620004f9565b60200260200101518383815181106200012c576200012c620004f9565b60200260200101516200015e60201b60201c565b806200014c8162000521565b915050620000ec565b50505062000558565b6001600160a01b038216620001cb5760405162461bcd60e51b815260206004820152602c60248201527f5061796d656e7453706c69747465723a206163636f756e74206973207468652060448201526b7a65726f206164647265737360a01b60648201526084016200008f565b5f81116200021c5760405162461bcd60e51b815260206004820152601d60248201527f5061796d656e7453706c69747465723a2073686172657320617265203000000060448201526064016200008f565b6001600160a01b0382165f9081526002602052604090205415620002975760405162461bcd60e51b815260206004820152602b60248201527f5061796d656e7453706c69747465723a206163636f756e7420616c726561647960448201526a206861732073686172657360a81b60648201526084016200008f565b60048054600181019091557f8a35acfbc15ff81a39ae7d344fd709f28e8600b4aa8c65c6b64bfe7fe36bd19b0180546001600160a01b0319166001600160a01b0384169081179091555f90815260026020526040812082905554620002fe9082906200053c565b5f55604080516001600160a01b0384168152602081018390527f40c340f65e17194d14ddddb073d3c9f888e3cb52b5aae0c6c7706b4fbc905fac910160405180910390a15050565b634e487b7160e01b5f52604160045260245ffd5b604051601f8201601f191681016001600160401b038111828210171562000385576200038562000346565b604052919050565b5f6001600160401b03821115620003a857620003a862000346565b5060051b60200190565b5f82601f830112620003c2575f80fd5b81516020620003db620003d5836200038d565b6200035a565b82815260059290921b84018101918181019086841115620003fa575f80fd5b8286015b84811015620004175780518352918301918301620003fe565b509695505050505050565b5f806040838503121562000434575f80fd5b82516001600160401b03808211156200044b575f80fd5b818501915085601f8301126200045f575f80fd5b8151602062000472620003d5836200038d565b82815260059290921b8401810191818101908984111562000491575f80fd5b948201945b83861015620004c75785516001600160a01b0381168114620004b7575f8081fd5b8252948201949082019062000496565b91880151919650909350505080821115620004e0575f80fd5b50620004ef85828601620003b2565b9150509250929050565b634e487b7160e01b5f52603260045260245ffd5b634e487b7160e01b5f52601160045260245ffd5b5f600182016200053557620005356200050d565b5060010190565b808201808211156200055257620005526200050d565b92915050565b610bd080620005665f395ff3fe60806040526004361061009d575f3560e01c80639852595c116100625780639852595c146101a2578063a3f8eace146101d6578063c45ac050146101f5578063ce7c2ac214610214578063d79779b214610248578063e33b7de31461027c575f80fd5b806319165587146100ea5780633a98ef391461010b578063406072a91461012d57806348b750441461014c5780638b83209b1461016b575f80fd5b366100e6577f6ef95f06320e7a25a04a175ca677b7052bdd97131872c2192525a629f51be77033604080516001600160a01b0390921682523460208301520160405180910390a1005b5f80fd5b3480156100f5575f80fd5b50610109610104366004610977565b610290565b005b348015610116575f80fd5b505f545b6040519081526020015b60405180910390f35b348015610138575f80fd5b5061011a610147366004610992565b61037b565b348015610157575f80fd5b50610109610166366004610992565b6103a7565b348015610176575f80fd5b5061018a6101853660046109c9565b6104b3565b6040516001600160a01b039091168152602001610124565b3480156101ad575f80fd5b5061011a6101bc366004610977565b6001600160a01b03165f9081526003602052604090205490565b3480156101e1575f80fd5b5061011a6101f0366004610977565b6104e1565b348015610200575f80fd5b5061011a61020f366004610992565b610527565b34801561021f575f80fd5b5061011a61022e366004610977565b6001600160a01b03165f9081526002602052604090205490565b348015610253575f80fd5b5061011a610262366004610977565b6001600160a01b03165f9081526005602052604090205490565b348015610287575f80fd5b5060015461011a565b6001600160a01b0381165f908152600260205260409020546102cd5760405162461bcd60e51b81526004016102c4906109e0565b60405180910390fd5b5f6102d7826104e1565b9050805f036102f85760405162461bcd60e51b81526004016102c490610a26565b8060015f8282546103099190610a85565b90915550506001600160a01b0382165f90815260036020526040902080548201905561033582826105ca565b604080516001600160a01b0384168152602081018390527fdf20fd1e76bc69d672e4814fafb2c449bba3a5369d8359adf9e05e6fde87b056910160405180910390a15050565b6001600160a01b038083165f908152600660209081526040808320938516835292905220545b92915050565b6001600160a01b0381165f908152600260205260409020546103db5760405162461bcd60e51b81526004016102c4906109e0565b5f6103e68383610527565b9050805f036104075760405162461bcd60e51b81526004016102c490610a26565b6001600160a01b0383165f908152600560205260408120805483929061042e908490610a85565b90915550506001600160a01b038084165f9081526006602090815260408083209386168352929052208054820190556104688383836106e4565b604080516001600160a01b038481168252602082018490528516917f3be5b7a71e84ed12875d241991c70855ac5817d847039e17a9d895c1ceb0f18a910160405180910390a2505050565b5f600482815481106104c7576104c7610a98565b5f918252602090912001546001600160a01b031692915050565b5f806104ec60015490565b6104f69047610a85565b9050610520838261051b866001600160a01b03165f9081526003602052604090205490565b610736565b9392505050565b6001600160a01b0382165f9081526005602052604081205481906040516370a0823160e01b81523060048201526001600160a01b038616906370a0823190602401602060405180830381865afa158015610583573d5f803e3d5ffd5b505050506040513d601f19601f820116820180604052508101906105a79190610aac565b6105b19190610a85565b90506105c2838261051b878761037b565b949350505050565b8047101561061a5760405162461bcd60e51b815260206004820152601d60248201527f416464726573733a20696e73756666696369656e742062616c616e636500000060448201526064016102c4565b5f826001600160a01b0316826040515f6040518083038185875af1925050503d805f8114610663576040519150601f19603f3d011682016040523d82523d5f602084013e610668565b606091505b50509050806106df5760405162461bcd60e51b815260206004820152603a60248201527f416464726573733a20756e61626c6520746f2073656e642076616c75652c207260448201527f6563697069656e74206d6179206861766520726576657274656400000000000060648201526084016102c4565b505050565b604080516001600160a01b038416602482015260448082018490528251808303909101815260649091019091526020810180516001600160e01b031663a9059cbb60e01b1790526106df908490610770565b5f80546001600160a01b03851682526002602052604082205483919061075c9086610ac3565b6107669190610ada565b6105c29190610af9565b5f6107c4826040518060400160405280602081526020017f5361666545524332303a206c6f772d6c6576656c2063616c6c206661696c6564815250856001600160a01b03166108439092919063ffffffff16565b905080515f14806107e45750808060200190518101906107e49190610b0c565b6106df5760405162461bcd60e51b815260206004820152602a60248201527f5361666545524332303a204552433230206f7065726174696f6e20646964206e6044820152691bdd081cdd58d8d9595960b21b60648201526084016102c4565b60606105c284845f85855f80866001600160a01b031685876040516108689190610b4d565b5f6040518083038185875af1925050503d805f81146108a2576040519150601f19603f3d011682016040523d82523d5f602084013e6108a7565b606091505b50915091506108b8878383876108c3565b979650505050505050565b606083156109315782515f0361092a576001600160a01b0385163b61092a5760405162461bcd60e51b815260206004820152601d60248201527f416464726573733a2063616c6c20746f206e6f6e2d636f6e747261637400000060448201526064016102c4565b50816105c2565b6105c283838151156109465781518083602001fd5b8060405162461bcd60e51b81526004016102c49190610b68565b6001600160a01b0381168114610974575f80fd5b50565b5f60208284031215610987575f80fd5b813561052081610960565b5f80604083850312156109a3575f80fd5b82356109ae81610960565b915060208301356109be81610960565b809150509250929050565b5f602082840312156109d9575f80fd5b5035919050565b60208082526026908201527f5061796d656e7453706c69747465723a206163636f756e7420686173206e6f2060408201526573686172657360d01b606082015260800190565b6020808252602b908201527f5061796d656e7453706c69747465723a206163636f756e74206973206e6f742060408201526a191d59481c185e5b595b9d60aa1b606082015260800190565b634e487b7160e01b5f52601160045260245ffd5b808201808211156103a1576103a1610a71565b634e487b7160e01b5f52603260045260245ffd5b5f60208284031215610abc575f80fd5b5051919050565b80820281158282048414176103a1576103a1610a71565b5f82610af457634e487b7160e01b5f52601260045260245ffd5b500490565b818103818111156103a1576103a1610a71565b5f60208284031215610b1c575f80fd5b81518015158114610520575f80fd5b5f5b83811015610b45578181015183820152602001610b2d565b50505f910152565b5f8251610b5e818460208701610b2b565b9190910192915050565b602081525f8251806020840152610b86816040850160208701610b2b565b601f01601f1916919091016040019291505056fea2646970667358221220d900b42170cbd10452e83d0ce5b307501bbdaab00c873b8378ae87a3d0e5691464736f6c63430008140033a26469706673582212202fc8d51b4624ecc1250a3aca39fd7b6810bc247780d71909c614dbe455dd3a3864736f6c63430008140033",
  "devdoc": {
    "kind": "dev",
    "methods": {},
    "version": 1
  },
  "userdoc": {
    "kind": "user",
    "methods": {},
    "version": 1
  },
  "storageLayout": {
    "storage": [
      {
        "astId": 1441,
        "contract": "src/PoolCreator.sol:PoolCreator",
        "label": "numPools",
        "offset": 0,
        "slot": "0",
        "type": "t_uint256"
      },
      {
        "astId": 1446,
        "contract": "src/PoolCreator.sol:PoolCreator",
        "label": "pools",
        "offset": 0,
        "slot": "1",
        "type": "t_mapping(t_uint256,t_struct(Pool)1439_storage)"
      },
      {
        "astId": 1449,
        "contract": "src/PoolCreator.sol:PoolCreator",
        "label": "depositContract",
        "offset": 0,
        "slot": "2",
        "type": "t_contract(IDepositContract)1369"
      },
      {
        "astId": 1451,
        "contract": "src/PoolCreator.sol:PoolCreator",
        "label": "rugpuller",
        "offset": 0,
        "slot": "3",
        "type": "t_address"
      }
    ],
    "types": {
      "t_address": {
        "encoding": "inplace",
        "label": "address",
        "numberOfBytes": "20"
      },
      "t_array(t_address)dyn_storage": {
        "base": "t_address",
        "encoding": "dynamic_array",
        "label": "address[]",
        "numberOfBytes": "32"
      },
      "t_array(t_bool)dyn_storage": {
        "base": "t_bool",
        "encoding": "dynamic_array",
        "label": "bool[]",
        "numberOfBytes": "32"
      },
      "t_array(t_uint256)dyn_storage": {
        "base": "t_uint256",
        "encoding": "dynamic_array",
        "label": "uint256[]",
        "numberOfBytes": "32"
      },
      "t_bool": {
        "encoding": "inplace",
        "label": "bool",
        "numberOfBytes": "1"
      },
      "t_contract(IDepositContract)1369": {
        "encoding": "inplace",
        "label": "contract IDepositContract",
        "numberOfBytes": "20"
      },
      "t_mapping(t_uint256,t_struct(Pool)1439_storage)": {
        "encoding": "mapping",
        "key": "t_uint256",
        "label": "mapping(uint256 => struct Pool)",
        "numberOfBytes": "32",
        "value": "t_struct(Pool)1439_storage"
      },
      "t_struct(Pool)1439_storage": {
        "encoding": "inplace",
        "label": "struct Pool",
        "members": [
          {
            "astId": 1426,
            "contract": "src/PoolCreator.sol:PoolCreator",
            "label": "friends",
            "offset": 0,
            "slot": "0",
            "type": "t_array(t_address)dyn_storage"
          },
          {
            "astId": 1429,
            "contract": "src/PoolCreator.sol:PoolCreator",
            "label": "shares",
            "offset": 0,
            "slot": "1",
            "type": "t_array(t_uint256)dyn_storage"
          },
          {
            "astId": 1432,
            "contract": "src/PoolCreator.sol:PoolCreator",
            "label": "deposited",
            "offset": 0,
            "slot": "2",
            "type": "t_array(t_bool)dyn_storage"
          },
          {
            "astId": 1434,
            "contract": "src/PoolCreator.sol:PoolCreator",
            "label": "numDeposited",
            "offset": 0,
            "slot": "3",
            "type": "t_uint256"
          },
          {
            "astId": 1436,
            "contract": "src/PoolCreator.sol:PoolCreator",
            "label": "isFinalized",
            "offset": 0,
            "slot": "4",
            "type": "t_bool"
          },
          {
            "astId": 1438,
            "contract": "src/PoolCreator.sol:PoolCreator",
            "label": "rewardSplitter",
            "offset": 1,
            "slot": "4",
            "type": "t_address"
          }
        ],
        "numberOfBytes": "160"
      },
      "t_uint256": {
        "encoding": "inplace",
        "label": "uint256",
        "numberOfBytes": "32"
      }
    }
  }
}