{
  "address": "0xCf7Ed3AccA5a467e9e704C703E8D87F634fB0Fc9",
  "abi": [
    {
      "inputs": [
        {
          "internalType": "address",
          "name": "_token",
          "type": "address"
        }
      ],
      "stateMutability": "nonpayable",
      "type": "constructor"
    },
    {
      "anonymous": false,
      "inputs": [
        {
          "indexed": false,
          "internalType": "bytes",
          "name": "pubkey",
          "type": "bytes"
        },
        {
          "indexed": false,
          "internalType": "bytes",
          "name": "withdrawal_credentials",
          "type": "bytes"
        },
        {
          "indexed": false,
          "internalType": "bytes",
          "name": "amount",
          "type": "bytes"
        },
        {
          "indexed": false,
          "internalType": "bytes",
          "name": "signature",
          "type": "bytes"
        },
        {
          "indexed": false,
          "internalType": "bytes",
          "name": "index",
          "type": "bytes"
        }
      ],
      "name": "DepositEvent",
      "type": "event"
    },
    {
      "anonymous": false,
      "inputs": [
        {
          "indexed": true,
          "internalType": "uint256",
          "name": "_failedWithdrawalId",
          "type": "uint256"
        },
        {
          "indexed": false,
          "internalType": "uint256",
          "name": "_processedAmount",
          "type": "uint256"
        },
        {
          "indexed": true,
          "internalType": "address",
          "name": "_address",
          "type": "address"
        }
      ],
      "name": "FailedWithdrawalProcessed",
      "type": "event"
    },
    {
      "anonymous": false,
      "inputs": [
        {
          "indexed": false,
          "internalType": "address",
          "name": "account",
          "type": "address"
        }
      ],
      "name": "Paused",
      "type": "event"
    },
    {
      "anonymous": false,
      "inputs": [
        {
          "indexed": false,
          "internalType": "address",
          "name": "account",
          "type": "address"
        }
      ],
      "name": "Unpaused",
      "type": "event"
    },
    {
      "anonymous": false,
      "inputs": [
        {
          "indexed": false,
          "internalType": "uint256",
          "name": "_amount",
          "type": "uint256"
        },
        {
          "indexed": true,
          "internalType": "address",
          "name": "_address",
          "type": "address"
        }
      ],
      "name": "WithdrawalExecuted",
      "type": "event"
    },
    {
      "anonymous": false,
      "inputs": [
        {
          "indexed": true,
          "internalType": "uint256",
          "name": "_failedWithdrawalId",
          "type": "uint256"
        },
        {
          "indexed": false,
          "internalType": "uint256",
          "name": "_amount",
          "type": "uint256"
        },
        {
          "indexed": true,
          "internalType": "address",
          "name": "_address",
          "type": "address"
        }
      ],
      "name": "WithdrawalFailed",
      "type": "event"
    },
    {
      "inputs": [
        {
          "internalType": "bytes",
          "name": "pubkeys",
          "type": "bytes"
        },
        {
          "internalType": "bytes",
          "name": "withdrawal_credentials",
          "type": "bytes"
        },
        {
          "internalType": "bytes",
          "name": "signatures",
          "type": "bytes"
        },
        {
          "internalType": "bytes32[]",
          "name": "deposit_data_roots",
          "type": "bytes32[]"
        }
      ],
      "name": "batchDeposit",
      "outputs": [],
      "stateMutability": "nonpayable",
      "type": "function"
    },
    {
      "inputs": [
        {
          "internalType": "address",
          "name": "_token",
          "type": "address"
        },
        {
          "internalType": "address",
          "name": "_to",
          "type": "address"
        }
      ],
      "name": "claimTokens",
      "outputs": [],
      "stateMutability": "nonpayable",
      "type": "function"
    },
    {
      "inputs": [
        {
          "internalType": "bytes",
          "name": "pubkey",
          "type": "bytes"
        },
        {
          "internalType": "bytes",
          "name": "withdrawal_credentials",
          "type": "bytes"
        },
        {
          "internalType": "bytes",
          "name": "signature",
          "type": "bytes"
        },
        {
          "internalType": "bytes32",
          "name": "deposit_data_root",
          "type": "bytes32"
        },
        {
          "internalType": "uint256",
          "name": "stake_amount",
          "type": "uint256"
        }
      ],
      "name": "deposit",
      "outputs": [],
      "stateMutability": "nonpayable",
      "type": "function"
    },
    {
      "inputs": [
        {
          "internalType": "uint256",
          "name": "_maxNumberOfFailedWithdrawalsToProcess",
          "type": "uint256"
        },
        {
          "internalType": "uint64[]",
          "name": "_amounts",
          "type": "uint64[]"
        },
        {
          "internalType": "address[]",
          "name": "_addresses",
          "type": "address[]"
        }
      ],
      "name": "executeSystemWithdrawals",
      "outputs": [],
      "stateMutability": "nonpayable",
      "type": "function"
    },
    {
      "inputs": [
        {
          "internalType": "uint64",
          "name": "",
          "type": "uint64"
        }
      ],
      "name": "failedWithdrawalIndexByWithdrawalIndex",
      "outputs": [
        {
          "internalType": "uint256",
          "name": "",
          "type": "uint256"
        }
      ],
      "stateMutability": "view",
      "type": "function"
    },
    {
      "inputs": [
        {
          "internalType": "uint256",
          "name": "",
          "type": "uint256"
        }
      ],
      "name": "failedWithdrawals",
      "outputs": [
        {
          "internalType": "uint256",
          "name": "amount",
          "type": "uint256"
        },
        {
          "internalType": "address",
          "name": "receiver",
          "type": "address"
        },
        {
          "internalType": "uint64",
          "name": "withdrawalIndex",
          "type": "uint64"
        }
      ],
      "stateMutability": "view",
      "type": "function"
    },
    {
      "inputs": [],
      "name": "failedWithdrawalsPointer",
      "outputs": [
        {
          "internalType": "uint256",
          "name": "",
          "type": "uint256"
        }
      ],
      "stateMutability": "view",
      "type": "function"
    },
    {
      "inputs": [],
      "name": "get_deposit_count",
      "outputs": [
        {
          "internalType": "bytes",
          "name": "",
          "type": "bytes"
        }
      ],
      "stateMutability": "view",
      "type": "function"
    },
    {
      "inputs": [],
      "name": "get_deposit_root",
      "outputs": [
        {
          "internalType": "bytes32",
          "name": "",
          "type": "bytes32"
        }
      ],
      "stateMutability": "view",
      "type": "function"
    },
    {
      "inputs": [
        {
          "internalType": "uint64",
          "name": "_withdrawalIndex",
          "type": "uint64"
        }
      ],
      "name": "isWithdrawalProcessed",
      "outputs": [
        {
          "internalType": "bool",
          "name": "",
          "type": "bool"
        }
      ],
      "stateMutability": "view",
      "type": "function"
    },
    {
      "inputs": [],
      "name": "nextWithdrawalIndex",
      "outputs": [
        {
          "internalType": "uint64",
          "name": "",
          "type": "uint64"
        }
      ],
      "stateMutability": "view",
      "type": "function"
    },
    {
      "inputs": [],
      "name": "numberOfFailedWithdrawals",
      "outputs": [
        {
          "internalType": "uint256",
          "name": "",
          "type": "uint256"
        }
      ],
      "stateMutability": "view",
      "type": "function"
    },
    {
      "inputs": [
        {
          "internalType": "address",
          "name": "",
          "type": "address"
        },
        {
          "internalType": "uint256",
          "name": "stake_amount",
          "type": "uint256"
        },
        {
          "internalType": "bytes",
          "name": "data",
          "type": "bytes"
        }
      ],
      "name": "onTokenTransfer",
      "outputs": [
        {
          "internalType": "bool",
          "name": "",
          "type": "bool"
        }
      ],
      "stateMutability": "nonpayable",
      "type": "function"
    },
    {
      "inputs": [],
      "name": "pause",
      "outputs": [],
      "stateMutability": "nonpayable",
      "type": "function"
    },
    {
      "inputs": [],
      "name": "paused",
      "outputs": [
        {
          "internalType": "bool",
          "name": "",
          "type": "bool"
        }
      ],
      "stateMutability": "view",
      "type": "function"
    },
    {
      "inputs": [
        {
          "internalType": "uint256",
          "name": "_failedWithdrawalId",
          "type": "uint256"
        },
        {
          "internalType": "uint256",
          "name": "_amountToProceed",
          "type": "uint256"
        }
      ],
      "name": "processFailedWithdrawal",
      "outputs": [],
      "stateMutability": "nonpayable",
      "type": "function"
    },
    {
      "inputs": [
        {
          "internalType": "uint256",
          "name": "_maxNumberOfFailedWithdrawalsToProcess",
          "type": "uint256"
        }
      ],
      "name": "processFailedWithdrawalsFromPointer",
      "outputs": [],
      "stateMutability": "nonpayable",
      "type": "function"
    },
    {
      "inputs": [
        {
          "internalType": "uint256",
          "name": "_amount",
          "type": "uint256"
        },
        {
          "internalType": "address",
          "name": "_receiver",
          "type": "address"
        }
      ],
      "name": "processWithdrawalInternal",
      "outputs": [],
      "stateMutability": "nonpayable",
      "type": "function"
    },
    {
      "inputs": [],
      "name": "stake_token",
      "outputs": [
        {
          "internalType": "contract IERC20",
          "name": "",
          "type": "address"
        }
      ],
      "stateMutability": "view",
      "type": "function"
    },
    {
      "inputs": [
        {
          "internalType": "bytes4",
          "name": "interfaceId",
          "type": "bytes4"
        }
      ],
      "name": "supportsInterface",
      "outputs": [
        {
          "internalType": "bool",
          "name": "",
          "type": "bool"
        }
      ],
      "stateMutability": "pure",
      "type": "function"
    },
    {
      "inputs": [],
      "name": "unpause",
      "outputs": [],
      "stateMutability": "nonpayable",
      "type": "function"
    },
    {
      "inputs": [
        {
          "internalType": "contract IUnwrapper",
          "name": "_unwrapper",
          "type": "address"
        },
        {
          "internalType": "contract IERC20",
          "name": "_token",
          "type": "address"
        }
      ],
      "name": "unwrapTokens",
      "outputs": [],
      "stateMutability": "nonpayable",
      "type": "function"
    },
    {
      "inputs": [
        {
          "internalType": "bytes",
          "name": "",
          "type": "bytes"
        }
      ],
      "name": "validator_withdrawal_credentials",
      "outputs": [
        {
          "internalType": "bytes32",
          "name": "",
          "type": "bytes32"
        }
      ],
      "stateMutability": "view",
      "type": "function"
    }
  ],
  "transactionHash": "0xfdf6097f75aaf3765a6aed7965e7b7218ffc5c0487b68f59a91c8360ad499af5",
  "args": [
    "0x9fE46736679d2D9a65F0992F2272dE9f3c7fa6e0"
  ],
  "numDeployments": 1,
  "solcInputHash": "a5ecd03d2b57c561cfaa6088ce5e0722",
  "bytecode": "0x60a06040523480156200001157600080fd5b5060405162002137380380620021378339818101604052810190620000379190620000f6565b60008060006101000a81548160ff0219169083151502179055508073ffffffffffffffffffffffffffffffffffffffff1660808173ffffffffffffffffffffffffffffffffffffffff16815250505062000128565b600080fd5b600073ffffffffffffffffffffffffffffffffffffffff82169050919050565b6000620000be8262000091565b9050919050565b620000d081620000b1565b8114620000dc57600080fd5b50565b600081519050620000f081620000c5565b92915050565b6000602082840312156200010f576200010e6200008c565b5b60006200011f84828501620000df565b91505092915050565b608051611fe5620001526000396000818161057e0152818161072d01526108640152611fe56000f3fe608060405234801561001057600080fd5b506004361061014d5760003560e01c806369ffa08a116100c3578063b2e2e2e41161007c578063b2e2e2e414610378578063b6921e5714610396578063bba9282e146103b2578063c5f2892f146103d0578063c82655b7146103ee578063def357e01461040a5761014d565b806369ffa08a146102a4578063785e9d82146102c057806379d0c0bc146102f25780638456cb591461030e5780638e5fb7a714610318578063a4c0ed36146103485761014d565b80634128c37f116101155780634128c37f146101f45780634694bd1e146102125780635bf207d21461022e5780635c975abb1461024a578063621fd13014610268578063640415bf146102865761014d565b806301ffc9a7146101525780630cac9f31146101825780631b9672a21461019e57806324db4c46146101ba5780633f4ba83a146101ea575b600080fd5b61016c60048036038101906101679190610e38565b61043a565b6040516101799190610e80565b60405180910390f35b61019c6004803603810190610197919061104d565b610574565b005b6101b860048036038101906101b3919061117a565b610640565b005b6101d460048036038101906101cf91906111ba565b610644565b6040516101e19190611212565b60405180910390f35b6101f2610672565b005b6101fc6106bb565b604051610209919061123c565b60405180910390f35b61022c600480360381019061022791906112d3565b6106c1565b005b61024860048036038101906102439190611313565b610704565b005b610252610710565b60405161025f9190610e80565b60405180910390f35b610270610726565b60405161027d91906113db565b60405180910390f35b61028e61072b565b60405161029b919061145c565b60405180910390f35b6102be60048036038101906102b99190611477565b61074f565b005b6102da60048036038101906102d591906114b7565b610792565b6040516102e993929190611516565b60405180910390f35b61030c60048036038101906103079190611603565b6107f0565b005b6103166107f7565b005b610332600480360381019061032d91906116c4565b610840565b60405161033f919061123c565b60405180910390f35b610362600480360381019061035d9190611747565b610858565b60405161036f9190610e80565b60405180910390f35b610380610bfc565b60405161038d919061123c565b60405180910390f35b6103b060048036038101906103ab91906114b7565b610c02565b005b6103ba610c05565b6040516103c791906117bb565b60405180910390f35b6103d8610c1f565b6040516103e59190611212565b60405180910390f35b6104086004803603810190610403919061182c565b610c24565b005b610424600480360381019061041f91906116c4565b610c36565b6040516104319190610e80565b60405180910390f35b60007f01ffc9a7000000000000000000000000000000000000000000000000000000007bffffffffffffffffffffffffffffffffffffffffffffffffffffffff1916827bffffffffffffffffffffffffffffffffffffffffffffffffffffffff1916148061050557507fab41c72e000000000000000000000000000000000000000000000000000000007bffffffffffffffffffffffffffffffffffffffffffffffffffffffff1916827bffffffffffffffffffffffffffffffffffffffffffffffffffffffff1916145b8061056d57507fa4c0ed36000000000000000000000000000000000000000000000000000000007bffffffffffffffffffffffffffffffffffffffffffffffffffffffff1916827bffffffffffffffffffffffffffffffffffffffffffffffffffffffff1916145b9050919050565b61057c610c3d565b7f000000000000000000000000000000000000000000000000000000000000000073ffffffffffffffffffffffffffffffffffffffff166323b872dd3330846040518463ffffffff1660e01b81526004016105d993929190611915565b602060405180830381600087803b1580156105f357600080fd5b505af1158015610607573d6000803e3d6000fd5b505050506040513d601f19601f8201168201806040525081019061062b9190611978565b506106398585858585610c87565b5050505050565b5050565b6042818051602081018201805184825260208301602085012081835280955050505050506000915090505481565b61067a610c8e565b73ffffffffffffffffffffffffffffffffffffffff163373ffffffffffffffffffffffffffffffffffffffff16146106b157600080fd5b6106b9610cb7565b565b60475481565b6106c9610c8e565b73ffffffffffffffffffffffffffffffffffffffff163373ffffffffffffffffffffffffffffffffffffffff161461070057600080fd5b5050565b61070c610c3d565b5050565b60008060009054906101000a900460ff16905090565b606090565b7f000000000000000000000000000000000000000000000000000000000000000081565b610757610c8e565b73ffffffffffffffffffffffffffffffffffffffff163373ffffffffffffffffffffffffffffffffffffffff161461078e57600080fd5b5050565b60436020528060005260406000206000915090508060000154908060010160009054906101000a900473ffffffffffffffffffffffffffffffffffffffff16908060010160149054906101000a900467ffffffffffffffff16905083565b5050505050565b6107ff610c8e565b73ffffffffffffffffffffffffffffffffffffffff163373ffffffffffffffffffffffffffffffffffffffff161461083657600080fd5b61083e610d19565b565b60446020528060005260406000206000915090505481565b6000610862610c3d565b7f000000000000000000000000000000000000000000000000000000000000000073ffffffffffffffffffffffffffffffffffffffff163373ffffffffffffffffffffffffffffffffffffffff16146108f0576040517f08c379a00000000000000000000000000000000000000000000000000000000081526004016108e790611a28565b60405180910390fd5b602060b0848490506109029190611a77565b14610942576040517f08c379a000000000000000000000000000000000000000000000000000000000815260040161093990611b1a565b60405180910390fd5b600060b0848490506109549190611b69565b905060008111610999576040517f08c379a000000000000000000000000000000000000000000000000000000000815260040161099090611c0c565b60405180910390fd5b60008590506001821115610a4c5760808211156109eb576040517f08c379a00000000000000000000000000000000000000000000000000000000081526004016109e290611c9e565b60405180910390fd5b81670de0b6b3a76400006109ff9190611cbe565b8614610a40576040517f08c379a0000000000000000000000000000000000000000000000000000000008152600401610a3790611d8a565b60405180910390fd5b670de0b6b3a764000090505b60008585600090602092610a6293929190611db4565b8080601f016020809104026020016040519081016040528093929190818152602001838380828437600081840152601f19601f8201169050808301925050505050505090506000602090505b86869050811015610bec57600087878390603085610acc9190611def565b92610ad993929190611db4565b8080601f016020809104026020016040519081016040528093929190818152602001838380828437600081840152601f19601f82011690508083019250505050505050905060008888603085610b2f9190611def565b90609086610b3d9190611def565b92610b4a93929190611db4565b8080601f016020809104026020016040519081016040528093929190818152602001838380828437600081840152601f19601f82011690508083019250505050505050905060008989609086610ba09190611def565b9060b087610bae9190611def565b92610bbb93929190611db4565b90610bc69190611e5d565b9050610bd5838684848a610c87565b50505060b081610be59190611def565b9050610aae565b5060019350505050949350505050565b60455481565b50565b604660009054906101000a900467ffffffffffffffff1681565b600090565b610c2c610c3d565b5050505050505050565b6000919050565b610c45610710565b15610c85576040517f08c379a0000000000000000000000000000000000000000000000000000000008152600401610c7c90611f08565b60405180910390fd5b565b5050505050565b60007fb53127684a568b3173ae13b9f8a6016e243e63b6e8ee1178d6a717850b5d610354905090565b610cbf610d7b565b60008060006101000a81548160ff0219169083151502179055507f5db9ee0a495bf2e6ff9c91a7834c1ba4fdd244a5e8aa4e537bd38aeae4b073aa610d02610dc4565b604051610d0f9190611f28565b60405180910390a1565b610d21610c3d565b60016000806101000a81548160ff0219169083151502179055507f62e78cea01bee320cd4e420270b5ea74000d11b0c9f74754ebdbfc544b05a258610d64610dc4565b604051610d719190611f28565b60405180910390a1565b610d83610710565b610dc2576040517f08c379a0000000000000000000000000000000000000000000000000000000008152600401610db990611f8f565b60405180910390fd5b565b600033905090565b6000604051905090565b600080fd5b600080fd5b60007fffffffff0000000000000000000000000000000000000000000000000000000082169050919050565b610e1581610de0565b8114610e2057600080fd5b50565b600081359050610e3281610e0c565b92915050565b600060208284031215610e4e57610e4d610dd6565b5b6000610e5c84828501610e23565b91505092915050565b60008115159050919050565b610e7a81610e65565b82525050565b6000602082019050610e956000830184610e71565b92915050565b600080fd5b600080fd5b6000601f19601f8301169050919050565b7f4e487b7100000000000000000000000000000000000000000000000000000000600052604160045260246000fd5b610eee82610ea5565b810181811067ffffffffffffffff82111715610f0d57610f0c610eb6565b5b80604052505050565b6000610f20610dcc565b9050610f2c8282610ee5565b919050565b600067ffffffffffffffff821115610f4c57610f4b610eb6565b5b610f5582610ea5565b9050602081019050919050565b82818337600083830152505050565b6000610f84610f7f84610f31565b610f16565b905082815260208101848484011115610fa057610f9f610ea0565b5b610fab848285610f62565b509392505050565b600082601f830112610fc857610fc7610e9b565b5b8135610fd8848260208601610f71565b91505092915050565b6000819050919050565b610ff481610fe1565b8114610fff57600080fd5b50565b60008135905061101181610feb565b92915050565b6000819050919050565b61102a81611017565b811461103557600080fd5b50565b60008135905061104781611021565b92915050565b600080600080600060a0868803121561106957611068610dd6565b5b600086013567ffffffffffffffff81111561108757611086610ddb565b5b61109388828901610fb3565b955050602086013567ffffffffffffffff8111156110b4576110b3610ddb565b5b6110c088828901610fb3565b945050604086013567ffffffffffffffff8111156110e1576110e0610ddb565b5b6110ed88828901610fb3565b93505060606110fe88828901611002565b925050608061110f88828901611038565b9150509295509295909350565b600073ffffffffffffffffffffffffffffffffffffffff82169050919050565b60006111478261111c565b9050919050565b6111578161113c565b811461116257600080fd5b50565b6000813590506111748161114e565b92915050565b6000806040838503121561119157611190610dd6565b5b600061119f85828601611038565b92505060206111b085828601611165565b9150509250929050565b6000602082840312156111d0576111cf610dd6565b5b600082013567ffffffffffffffff8111156111ee576111ed610ddb565b5b6111fa84828501610fb3565b91505092915050565b61120c81610fe1565b82525050565b60006020820190506112276000830184611203565b92915050565b61123681611017565b82525050565b6000602082019050611251600083018461122d565b92915050565b60006112628261113c565b9050919050565b61127281611257565b811461127d57600080fd5b50565b60008135905061128f81611269565b92915050565b60006112a08261113c565b9050919050565b6112b081611295565b81146112bb57600080fd5b50565b6000813590506112cd816112a7565b92915050565b600080604083850312156112ea576112e9610dd6565b5b60006112f885828601611280565b9250506020611309858286016112be565b9150509250929050565b6000806040838503121561132a57611329610dd6565b5b600061133885828601611038565b925050602061134985828601611038565b9150509250929050565b600081519050919050565b600082825260208201905092915050565b60005b8381101561138d578082015181840152602081019050611372565b8381111561139c576000848401525b50505050565b60006113ad82611353565b6113b7818561135e565b93506113c781856020860161136f565b6113d081610ea5565b840191505092915050565b600060208201905081810360008301526113f581846113a2565b905092915050565b6000819050919050565b600061142261141d6114188461111c565b6113fd565b61111c565b9050919050565b600061143482611407565b9050919050565b600061144682611429565b9050919050565b6114568161143b565b82525050565b6000602082019050611471600083018461144d565b92915050565b6000806040838503121561148e5761148d610dd6565b5b600061149c85828601611165565b92505060206114ad85828601611165565b9150509250929050565b6000602082840312156114cd576114cc610dd6565b5b60006114db84828501611038565b91505092915050565b6114ed8161113c565b82525050565b600067ffffffffffffffff82169050919050565b611510816114f3565b82525050565b600060608201905061152b600083018661122d565b61153860208301856114e4565b6115456040830184611507565b949350505050565b600080fd5b600080fd5b60008083601f84011261156d5761156c610e9b565b5b8235905067ffffffffffffffff81111561158a5761158961154d565b5b6020830191508360208202830111156115a6576115a5611552565b5b9250929050565b60008083601f8401126115c3576115c2610e9b565b5b8235905067ffffffffffffffff8111156115e0576115df61154d565b5b6020830191508360208202830111156115fc576115fb611552565b5b9250929050565b60008060008060006060868803121561161f5761161e610dd6565b5b600061162d88828901611038565b955050602086013567ffffffffffffffff81111561164e5761164d610ddb565b5b61165a88828901611557565b9450945050604086013567ffffffffffffffff81111561167d5761167c610ddb565b5b611689888289016115ad565b92509250509295509295909350565b6116a1816114f3565b81146116ac57600080fd5b50565b6000813590506116be81611698565b92915050565b6000602082840312156116da576116d9610dd6565b5b60006116e8848285016116af565b91505092915050565b60008083601f84011261170757611706610e9b565b5b8235905067ffffffffffffffff8111156117245761172361154d565b5b6020830191508360018202830111156117405761173f611552565b5b9250929050565b6000806000806060858703121561176157611760610dd6565b5b600061176f87828801611165565b945050602061178087828801611038565b935050604085013567ffffffffffffffff8111156117a1576117a0610ddb565b5b6117ad878288016116f1565b925092505092959194509250565b60006020820190506117d06000830184611507565b92915050565b60008083601f8401126117ec576117eb610e9b565b5b8235905067ffffffffffffffff8111156118095761180861154d565b5b60208301915083602082028301111561182557611824611552565b5b9250929050565b6000806000806000806000806080898b03121561184c5761184b610dd6565b5b600089013567ffffffffffffffff81111561186a57611869610ddb565b5b6118768b828c016116f1565b9850985050602089013567ffffffffffffffff81111561189957611898610ddb565b5b6118a58b828c016116f1565b9650965050604089013567ffffffffffffffff8111156118c8576118c7610ddb565b5b6118d48b828c016116f1565b9450945050606089013567ffffffffffffffff8111156118f7576118f6610ddb565b5b6119038b828c016117d6565b92509250509295985092959890939650565b600060608201905061192a60008301866114e4565b61193760208301856114e4565b611944604083018461122d565b949350505050565b61195581610e65565b811461196057600080fd5b50565b6000815190506119728161194c565b92915050565b60006020828403121561198e5761198d610dd6565b5b600061199c84828501611963565b91505092915050565b600082825260208201905092915050565b7f4465706f736974436f6e74726163743a206e6f742061206465706f736974207460008201527f6f6b656e00000000000000000000000000000000000000000000000000000000602082015250565b6000611a126024836119a5565b9150611a1d826119b6565b604082019050919050565b60006020820190508181036000830152611a4181611a05565b9050919050565b7f4e487b7100000000000000000000000000000000000000000000000000000000600052601260045260246000fd5b6000611a8282611017565b9150611a8d83611017565b925082611a9d57611a9c611a48565b5b828206905092915050565b7f4465706f736974436f6e74726163743a20696e636f7272656374206465706f7360008201527f69742064617461206c656e677468000000000000000000000000000000000000602082015250565b6000611b04602e836119a5565b9150611b0f82611aa8565b604082019050919050565b60006020820190508181036000830152611b3381611af7565b9050919050565b7f4e487b7100000000000000000000000000000000000000000000000000000000600052601160045260246000fd5b6000611b7482611017565b9150611b7f83611017565b925082611b8f57611b8e611a48565b5b828204905092915050565b7f42617463684465706f7369743a20596f752073686f756c64206465706f73697460008201527f206174206c65617374206f6e652076616c696461746f72000000000000000000602082015250565b6000611bf66037836119a5565b9150611c0182611b9a565b604082019050919050565b60006020820190508181036000830152611c2581611be9565b9050919050565b7f42617463684465706f7369743a20596f752063616e206465706f736974206d6160008201527f78203132382076616c696461746f727320617420612074696d65000000000000602082015250565b6000611c88603a836119a5565b9150611c9382611c2c565b604082019050919050565b60006020820190508181036000830152611cb781611c7b565b9050919050565b6000611cc982611017565b9150611cd483611017565b9250817fffffffffffffffffffffffffffffffffffffffffffffffffffffffffffffffff0483118215151615611d0d57611d0c611b3a565b5b828202905092915050565b7f42617463684465706f7369743a206261746368206465706f736974732072657160008201527f75697265203120474e4f206465706f73697420616d6f756e7400000000000000602082015250565b6000611d746039836119a5565b9150611d7f82611d18565b604082019050919050565b60006020820190508181036000830152611da381611d67565b9050919050565b600080fd5b600080fd5b60008085851115611dc857611dc7611daa565b5b83861115611dd957611dd8611daf565b5b6001850283019150848603905094509492505050565b6000611dfa82611017565b9150611e0583611017565b9250827fffffffffffffffffffffffffffffffffffffffffffffffffffffffffffffffff03821115611e3a57611e39611b3a565b5b828201905092915050565b600082905092915050565b600082821b905092915050565b6000611e698383611e45565b82611e748135610fe1565b92506020821015611eb457611eaf7fffffffffffffffffffffffffffffffffffffffffffffffffffffffffffffffff83602003600802611e50565b831692505b505092915050565b7f5061757361626c653a2070617573656400000000000000000000000000000000600082015250565b6000611ef26010836119a5565b9150611efd82611ebc565b602082019050919050565b60006020820190508181036000830152611f2181611ee5565b9050919050565b6000602082019050611f3d60008301846114e4565b92915050565b7f5061757361626c653a206e6f7420706175736564000000000000000000000000600082015250565b6000611f796014836119a5565b9150611f8482611f43565b602082019050919050565b60006020820190508181036000830152611fa881611f6c565b905091905056fea2646970667358221220916d1dce971df262abb10b1b04ba0f7f2cb69f8ad7c527405c105de166ecc0e064736f6c63430008090033",
  "devdoc": {
    "details": "Implementation of the ERC20 ETH2.0 deposit contract. For the original implementation, see the Phase 0 specification under https://github.com/ethereum/eth2.0-specs",
    "kind": "dev",
    "methods": {
      "claimTokens(address,address)": {
        "details": "Allows to transfer any locked token from this contract. Only admin can call this method. Deposit-related tokens cannot be claimed.",
        "params": {
          "_to": "address that will receive the locked tokens from this contract.",
          "_token": "address of the token, if it is not provided (0x00..00), native coins will be transferred."
        }
      },
      "deposit(bytes,bytes,bytes,bytes32,uint256)": {
        "params": {
          "deposit_data_root": "The SHA-256 hash of the SSZ-encoded DepositData object. Used as a protection against malformed input.",
          "pubkey": "A BLS12-381 public key.",
          "signature": "A BLS12-381 signature.",
          "withdrawal_credentials": "Commitment to a public key for withdrawals."
        }
      },
      "executeSystemWithdrawals(uint256,uint64[],address[])": {
        "details": "Function to be used only in the system transaction. Call to this function will revert only in three cases:     - the caller is not `SYSTEM_WITHDRAWAL_EXECUTOR` or `_admin()`;     - the length of `_amounts` array is not equal to the length of `_addresses` array;     - it is a reentrant access to failed withdrawals processing;     - the call ran out of gas. Call to this function doesn't transmit flow control to any untrusted contract and uses a constant gas limit for each withdrawal, so using constant gas limit and constant number of withdrawals (including failed withdrawals) for calls of this function is ok.",
        "params": {
          "_addresses": "Array of addresses that should receive the corresponding amount of tokens.",
          "_amounts": "Array of amounts to be withdrawn.",
          "_maxNumberOfFailedWithdrawalsToProcess": "Maximum number of failed withdrawals to be processed."
        }
      },
      "get_deposit_count()": {
        "returns": {
          "_0": "The deposit count encoded as a little endian 64-bit number."
        }
      },
      "get_deposit_root()": {
        "returns": {
          "_0": "The deposit root hash."
        }
      },
      "isWithdrawalProcessed(uint64)": {
        "details": "Check if a block's withdrawal has been fully processed or not",
        "params": {
          "_withdrawalIndex": "EIP-4895 withdrawal.index property"
        }
      },
      "paused()": {
        "details": "Returns true if the contract is paused, and false otherwise."
      },
      "processFailedWithdrawal(uint256,uint256)": {
        "details": "Function to be used to process a failed withdrawal (possibly partially).",
        "params": {
          "_amountToProceed": "Amount of token to withdraw (for the case it is impossible to withdraw the full amount) (available only for the receiver, will be ignored if other account tries to process the withdrawal).",
          "_failedWithdrawalId": "Id of a failed withdrawal."
        }
      },
      "processFailedWithdrawalsFromPointer(uint256)": {
        "details": "Function to be used to process failed withdrawals. Call to this function will revert only if it ran out of gas or it is a reentrant access to failed withdrawals processing. Call to this function doesn't transmit flow control to any untrusted contract and uses a constant gas limit for each withdrawal, so using constant gas limit and constant max number of withdrawals for calls of this function is ok.",
        "params": {
          "_maxNumberOfFailedWithdrawalsToProcess": "Maximum number of failed withdrawals to be processed."
        }
      },
      "processWithdrawalInternal(uint256,address)": {
        "details": "Function to be used to process a withdrawal. Actually it is an internal function, only this contract can call it. This is done in order to roll back all changes in case of revert.",
        "params": {
          "_amount": "Amount to be withdrawn.",
          "_receiver": "Receiver of the withdrawal."
        }
      },
      "supportsInterface(bytes4)": {
        "details": "Returns true if this contract implements the interface defined by `interfaceId`. See the corresponding https://eips.ethereum.org/EIPS/eip-165#how-interfaces-are-identified[EIP section] to learn more about how these ids are created. This function call must use less than 30 000 gas."
      },
      "unwrapTokens(address,address)": {
        "details": "Allows to unwrap the mGNO in this contract to GNO Only admin can call this method.",
        "params": {
          "_unwrapper": "address of the mGNO token unwrapper"
        }
      }
    },
    "title": "SBCDepositContract",
    "version": 1
  },
  "userdoc": {
    "events": {
      "DepositEvent(bytes,bytes,bytes,bytes,bytes)": {
        "notice": "A processed deposit event."
      },
      "FailedWithdrawalProcessed(uint256,uint256,address)": {
        "notice": "Processed (possibly partially) failed withdrawal event."
      },
      "WithdrawalExecuted(uint256,address)": {
        "notice": "Executed withdrawal event."
      },
      "WithdrawalFailed(uint256,uint256,address)": {
        "notice": "Failed withdrawal event."
      }
    },
    "kind": "user",
    "methods": {
      "deposit(bytes,bytes,bytes,bytes32,uint256)": {
        "notice": "Submit a Phase 0 DepositData object."
      },
      "get_deposit_count()": {
        "notice": "Query the current deposit count."
      },
      "get_deposit_root()": {
        "notice": "Query the current deposit root hash."
      }
    },
    "version": 1
  },
  "storageLayout": {
    "storage": [
      {
        "astId": 17,
        "contract": "src/gnosis/SBCDepositContract.sol:SBCDepositContract",
        "label": "_paused",
        "offset": 0,
        "slot": "0",
        "type": "t_bool"
      },
      {
        "astId": 1716,
        "contract": "src/gnosis/SBCDepositContract.sol:SBCDepositContract",
        "label": "zero_hashes",
        "offset": 0,
        "slot": "1",
        "type": "t_array(t_bytes32)32_storage"
      },
      {
        "astId": 1720,
        "contract": "src/gnosis/SBCDepositContract.sol:SBCDepositContract",
        "label": "branch",
        "offset": 0,
        "slot": "33",
        "type": "t_array(t_bytes32)32_storage"
      },
      {
        "astId": 1722,
        "contract": "src/gnosis/SBCDepositContract.sol:SBCDepositContract",
        "label": "deposit_count",
        "offset": 0,
        "slot": "65",
        "type": "t_uint256"
      },
      {
        "astId": 1726,
        "contract": "src/gnosis/SBCDepositContract.sol:SBCDepositContract",
        "label": "validator_withdrawal_credentials",
        "offset": 0,
        "slot": "66",
        "type": "t_mapping(t_bytes_memory_ptr,t_bytes32)"
      },
      {
        "astId": 2132,
        "contract": "src/gnosis/SBCDepositContract.sol:SBCDepositContract",
        "label": "failedWithdrawals",
        "offset": 0,
        "slot": "67",
        "type": "t_mapping(t_uint256,t_struct(FailedWithdrawalRecord)2127_storage)"
      },
      {
        "astId": 2136,
        "contract": "src/gnosis/SBCDepositContract.sol:SBCDepositContract",
        "label": "failedWithdrawalIndexByWithdrawalIndex",
        "offset": 0,
        "slot": "68",
        "type": "t_mapping(t_uint64,t_uint256)"
      },
      {
        "astId": 2138,
        "contract": "src/gnosis/SBCDepositContract.sol:SBCDepositContract",
        "label": "numberOfFailedWithdrawals",
        "offset": 0,
        "slot": "69",
        "type": "t_uint256"
      },
      {
        "astId": 2140,
        "contract": "src/gnosis/SBCDepositContract.sol:SBCDepositContract",
        "label": "nextWithdrawalIndex",
        "offset": 0,
        "slot": "70",
        "type": "t_uint64"
      },
      {
        "astId": 2153,
        "contract": "src/gnosis/SBCDepositContract.sol:SBCDepositContract",
        "label": "failedWithdrawalsPointer",
        "offset": 0,
        "slot": "71",
        "type": "t_uint256"
      }
    ],
    "types": {
      "t_address": {
        "encoding": "inplace",
        "label": "address",
        "numberOfBytes": "20"
      },
      "t_array(t_bytes32)32_storage": {
        "base": "t_bytes32",
        "encoding": "inplace",
        "label": "bytes32[32]",
        "numberOfBytes": "1024"
      },
      "t_bool": {
        "encoding": "inplace",
        "label": "bool",
        "numberOfBytes": "1"
      },
      "t_bytes32": {
        "encoding": "inplace",
        "label": "bytes32",
        "numberOfBytes": "32"
      },
      "t_bytes_memory_ptr": {
        "encoding": "bytes",
        "label": "bytes",
        "numberOfBytes": "32"
      },
      "t_mapping(t_bytes_memory_ptr,t_bytes32)": {
        "encoding": "mapping",
        "key": "t_bytes_memory_ptr",
        "label": "mapping(bytes => bytes32)",
        "numberOfBytes": "32",
        "value": "t_bytes32"
      },
      "t_mapping(t_uint256,t_struct(FailedWithdrawalRecord)2127_storage)": {
        "encoding": "mapping",
        "key": "t_uint256",
        "label": "mapping(uint256 => struct SBCDepositContract.FailedWithdrawalRecord)",
        "numberOfBytes": "32",
        "value": "t_struct(FailedWithdrawalRecord)2127_storage"
      },
      "t_mapping(t_uint64,t_uint256)": {
        "encoding": "mapping",
        "key": "t_uint64",
        "label": "mapping(uint64 => uint256)",
        "numberOfBytes": "32",
        "value": "t_uint256"
      },
      "t_struct(FailedWithdrawalRecord)2127_storage": {
        "encoding": "inplace",
        "label": "struct SBCDepositContract.FailedWithdrawalRecord",
        "members": [
          {
            "astId": 2122,
            "contract": "src/gnosis/SBCDepositContract.sol:SBCDepositContract",
            "label": "amount",
            "offset": 0,
            "slot": "0",
            "type": "t_uint256"
          },
          {
            "astId": 2124,
            "contract": "src/gnosis/SBCDepositContract.sol:SBCDepositContract",
            "label": "receiver",
            "offset": 0,
            "slot": "1",
            "type": "t_address"
          },
          {
            "astId": 2126,
            "contract": "src/gnosis/SBCDepositContract.sol:SBCDepositContract",
            "label": "withdrawalIndex",
            "offset": 20,
            "slot": "1",
            "type": "t_uint64"
          }
        ],
        "numberOfBytes": "64"
      },
      "t_uint256": {
        "encoding": "inplace",
        "label": "uint256",
        "numberOfBytes": "32"
      },
      "t_uint64": {
        "encoding": "inplace",
        "label": "uint64",
        "numberOfBytes": "8"
      }
    }
  }
}